:020000040800F2
:1000000000000220090A0008070A0008050A000883
:10001000050A0008050A0008050A0008000000009B
:10002000000000000000000000000000070A0008B7
:10003000070A000800000000070A0008070A000875
:10004000050A0008050A0008050A0008050A000854
:10005000050A0008050A0008050A0008050A000844
:10006000050A0008050A0008050A0008050A000834
:10007000050A0008050A0008050A0008050A000824
:10008000050A0008050A0008050A0008050A000814
:10009000050A0008050A0008050A0008050A000804
:1000A000050A0008050A0008050A0008050A0008F4
:1000B000AD010008050A0008050A0008050A000845
:1000C000050A0008050A0008050A0008050A0008D4
:1000D000050A0008050A0008050A0008050A0008C4
:1000E000050A0008050A0008050A0008050A0008B4
:1000F000050A0008050A0008050A0008050A0008A4
:10010000050A0008050A0008F9010008050A0008A8
:10011000050A0008050A0008050A0008050A000883
:10012000050A0008050A0008050A0008050A000873
:10013000050A0008050A0008050A0008050A000863
:10014000050A0008050A0008050A0008050A000853
:10015000050A0008050A0008050A0008050A000843
:10016000050A0008050A0008050A0008050A000833
:10017000050A0008050A0008050A0008050A000823
:10018000050A0008050A0008050A0008050A000813
:10019000050A0008050A0008050A0008050A000803
:1001A000050A0008050A0008050A000808B54FF00E
:1001B0008040012100F0A8FA48B14FF080400121B1
:1001C00000F0A8FA0B484FF4005100F017FA4FF076
:1001D0008040022100F098FA58B14FF0804002218F
:1001E00000F098FA03484FF40051BDE8084000F0D1
:1001F00007BA08BD000C024008B50F48012100F005
:1002000083FA40B10C48012100F084FA0B484FF406
:10021000805100F0F3F90848022100F075FA50B15E
:100220000548022100F076FA04484FF48051BDE8F9
:10023000084000F0E5B908BD000C0040000C024089
:1002400010B5664800F092F940F2036000F0BAFB86
:100250006348012100224FF6FF7300F0D4F900211A
:1002600002224FF6FF735E4800F0EFF94FF4006092
:1002700000F0A8FB1C2000F00FFC4FF0804000F0C5
:10028000FFF900210B460A464FF0804000F047FA84
:1002900000214FF0804000F05FFA4FF0804000F006
:1002A00047FA4FF0804000F048FA4FF08040A52117
:1002B00000F054FA07224FF08040002100F06AFA63
:1002C0004FF08040062100F031FB4FF080400021CC
:1002D00000F046FA692200214FF0804000F058FB00
:1002E0004FF0804000F02EFA03214FF0804000F0E4
:1002F00007FA40F6030000F065FB322000F0CCFB6B
:10030000384800F0BDF900210B460A46354800F098
:1003100006FA0021334800F01FFA324800F008FACC
:10032000304800F00AFA2F484FF4487100F016FAEE
:1003300007222C48002100F02DFA4FF080400621C2
:1003400000F0F4FA2748002100F00AFA00212548BD
:100350004FF4C87200F01CFB224800F0F3F921486A
:10036000032100F0CDF9204C9623238023889BB2F3
:10037000DB2B15D81D4B00BF013BFCD14FF080405B
:1003800000F0E5F921884FF0804089B200F0E6F9ED
:100390004FF0804000F0D6F9238801339BB2E4E7A8
:1003A000114BDC221A8023889BB2AA2BDBD90F4B7E
:1003B00000BF013BFCD14FF0804000F0C8F921881C
:1003C0004FF0804089B200F0C9F94FF0804000F052
:1003D000B9F92388013B9BB22380E4E7040B0008B2
:1003E000000C0240000C00400000002080841E0031
:1003F00004281CD8DFE800F003080D1217000C4B8E
:100400001B689B01FBD57047094B1B689803FBD504
:100410007047074B1B689907FBD57047054B1B6856
:100420009A07FBD57047044B1B689B07FBD57047A9
:1004300000380240703802407438024001280AD067
:1004400002D302280ED07047094B1B6803F0030348
:10045000022BF9D17047064B1B6803F00303012BF5
:10046000F9D17047024B1B689B07FBD1704700BF57
:1004700008380240042817D8DFE800F003080D0F01
:1004800011000A4B1A6842F080720CE0074B1A68A0
:1004900042F4803207E0054B02E0054B00E0054BDB
:1004A0001A6842F001021A60704700BF003802402B
:1004B0007038024074380240042817D8DFE800F092
:1004C00003080D0F11000A4B1A6822F080720CE02D
:1004D000074B1A6822F4803207E0054B02E0054B17
:1004E00000E0054B1A6822F001021A60704700BF55
:1004F000003802407038024074380240034B1A68DA
:1005000022F0030210431860704700BF0838024011
:10051000034B1A6822F4604242EA40301860704788
:1005200008380240034B1A6822F4E05242EA802065
:100530001860704708380240034B1A6822F0F00236
:1005400042EA0010186070470838024040EA03632E
:1005500043F48003520843EA8111531E024A41EAE0
:1005600003411160704700BF0438024010B50446D3
:100570000220FFF77FFF0220FFF73AFF0020FFF77E
:10058000BDFF0120FFF776FF0120FFF731FFE07B81
:1005900000B1012000F08EFA207BFFF7CDFF607BD9
:1005A000FFF7C0FFA07BFFF7B3FF227963792078C4
:1005B0006188FFF7CBFF0E4B1A6842F080721A6019
:1005C0001A689201FCD5A06800F0F2F90220FFF74A
:1005D00095FF0020FFF732FF064A23691360064BA0
:1005E00062691A600220BDE81040FFF765BF00BFD6
:1005F000003802400400002008000020816170479C
:100600000904816170472DE9F0410668C56800243E
:1006100043FA04F7FF0711D567004FF0030C0CFAFB
:1006200007FC6FEA0C0C01FA07F80CEA06060CEA64
:10063000050502FA07F746EA08063D430134102C87
:10064000E6D10660C560BDE8F081012941680CBFB4
:100650001943994370B541608468002143FA01F55C
:10066000ED0707D54D000326AE4024EA060402FA42
:1006700005F52C4301311029F0D1846070BD0000D4
:100680001C4B984228D00DD8A3F5006398421DD08A
:1006900003F5806398421CD0B0F1804F29D14FF40C
:1006A000806024E0144B98421CD004D8A3F58063EA
:1006B000984214D07047114B984204D003F58063E0
:1006C000984212D070474FF4906010E040F2014021
:1006D0000DE040F202400AE040F2034007E040F241
:1006E000044004E040F2054001E040F2814000F0A7
:1006F00077B97047000C0040001400400000014032
:10070000C3681943C160704703690B420CBF0020E6
:1007100001207047036923EA01010161704710B5A8
:100720000468134324F45C7419430C43046010BD43
:10073000036823F0800303607047036823F0080315
:1007400003607047036843F0010303607047036868
:1007500023F001030360704781627047C1627047F4
:10076000062916D8DFE801F0041508150D1511004B
:10077000836943F0040302E0836943F48063836187
:100780007047C36943F0040302E0C36943F4806324
:10079000C3617047062900F2C880DFE811F0070046
:1007A000C6003600C6006800C6009600836923F0C4
:1007B0000303836183698361836923F07003836129
:1007C000072A00F2B280DFE802F03304080C1014AC
:1007D000181C836943F0100347E0836943F020034A
:1007E00043E0836943F030033FE0836943F0400313
:1007F0003BE0836943F0500337E0836943F06003D3
:1008000033E0836943F070032FE0836923F440737E
:10081000836183698361836923F4E0438361072AE9
:1008200000F28380DFE802F004060A0E12161A1E98
:1008300083691AE0836943F4805316E0836943F4C3
:10084000005312E0836943F440530EE0836943F49C
:1008500080430AE0836943F4A04306E0836943F4DC
:10086000C04302E0836943F4E04383617047C36996
:1008700023F00303C361C369C361C36923F0700339
:10088000C361072A51D8DFE802F03204080C1014C3
:10089000181CC36943F0100346E0C36943F020030A
:1008A00042E0C36943F030033EE0C36943F04003D4
:1008B0003AE0C36943F0500336E0C36943F0600394
:1008C00032E0C36943F070032EE0C36923F4407340
:1008D000C361C369C361C36923F4E043C361072AE9
:1008E00023D8DFE802F004060A0E12161A1EC369A6
:1008F0001AE0C36943F4805316E0C36943F400531C
:1009000012E0C36943F440530EE0C36943F48043EB
:100910000AE0C36943F4A04306E0C36943F4C0435B
:1009200002E0C36943F4E043C3617047062915D868
:10093000DFE801F0041408140C141000036A23F01B
:1009400001030AE0036A23F0100306E0036A23F4BC
:10095000807302E0036A23F4805303620B4B20F49C
:1009600080629A4211D1032907D0052909D00129B3
:100970000BD1036A23F0040306E0036A23F040036B
:1009800002E0036A23F480630362704700000140C1
:1009900006290CD8DFE801F0040B060B080B0A004F
:1009A0004263704782637047C26370470264704756
:1009B000034B1A6822F0070210431860704700BF0B
:1009C000003C0240430903F1804303F50E3300F07D
:1009D0001F001A68012101FA00F0104318607047E7
:1009E000430903F1804303F50E3300F01F001A683A
:1009F000012101FA00F002431A601A6822EA00009D
:100A000018607047FEE770470022184918485318CD
:100A1000834204D2174BD35853500432F5E7164A99
:100A2000934203D200221A600433F8E7134B144CAC
:100A30001A6842F470021A60124B9C4203D254F8B6
:100A4000043B9847F8E7104C104B9C4203D254F8F3
:100A5000043B9847F8E7FFF7F3FB0D4C0D4B9C4226
:100A600003D254F8043B9847F8E700BF0000002089
:100A70000C0000201C0B00080C00002088ED00E09A
:100A80001C0B00081C0B00081C0B00081C0B0008AA
:100A90001C0B00081C0B0008054B420903EB8203EA
:100AA00000F01F00012202FA00F01860704700BF3A
:100AB00000E100E020B9064B1A6842F4804205E0EC
:100AC000012804D1024B1A6802F480421A60704770
:100AD00000700040080060000202000003060000F1
:100AE00000050401001BB70000366E010800F0008D
:100AF00002050000030600000005040180C3C901CF
:100B0000008793030800500102070000050600005B
:0C0B10000005040080DE800200BD01052D
:0C0B1C00A80000000024F4000024F400F5
:0400000508000A09DC
:00000001FF
