:020000040800F2
:10000000000002200D1900080B190008091900084A
:100010000919000809190008091900080000000062
:100020000000000000000000000000000B190008A4
:100030000B190008000000000B1900080B1900083C
:100040000919000809190008091900080919000808
:1000500009190008091900080919000809190008F8
:1000600009190008091900080919000809190008E8
:1000700009190008091900080919000809190008D8
:1000800009190008091900080919000809190008C8
:1000900009190008091900080919000809190008B8
:1000A00009190008690200080919000895020008EA
:1000B000C10200080D030008091900080919000809
:1000C0000919000809190008091900080919000888
:1000D0000919000809190008091900080919000878
:1000E0000919000809190008091900080919000868
:1000F0000919000809190008091900080919000858
:100100000919000809190008091900080919000847
:100110000919000809190008091900080919000837
:1001200009190008710300080919000809190008D5
:100130000919000809190008091900080919000817
:100140000919000809190008091900080919000807
:1001500009190008091900080919000809190008F7
:1001600009190008091900080919000809190008E7
:1001700009190008091900080919000809190008D7
:1001800009190008091900080919000809190008C7
:1001900009190008091900080919000809190008B7
:1001A00009190008091900080919000848782028C9
:1001B00004D0B0F1220358425841704718880628ED
:1001C00094BF0020012070477047000013B5104B0A
:1001D0000093012102224023044600F0A1FF0D4BB1
:1001E0000093204682210222402300F099FF002341
:1001F0000093204683210322102300F091FF064B39
:10020000204621217F2202B0BDE8104001F081BAD2
:100210001D020008C9010008AD01000800B591B039
:1002200001216A46402300F0A0FFA8B19DF80030EC
:10023000612B11D19DF801300948613BA5219940FE
:1002400000F0A3FD064800F087FD4FF0804000F06D
:1002500083FD044800F080FD11B05DF804FB00BF91
:10026000000400400000014008B50848012100F0EA
:1002700055FD50B10548012100F056FD04484FF4EA
:100280008051BDE8084000F093BC08BD000001406B
:10029000000C024008B50848022100F03FFD50B1B3
:1002A0000548022100F040FD04484FF48051BDE8AC
:1002B000084000F07FBC08BD00000140000C024077
:1002C00008B54FF08040012100F028FD48B14FF003
:1002D0008040012100F028FD0B484FF4004100F060
:1002E00069FC4FF08040022100F018FD58B14FF03A
:1002F0008040022100F018FD03484FF40041BDE8A2
:10030000084000F055BC08BD0000024008B5144884
:10031000012100F003FD90B11148012100F004FD1E
:10032000104B11481A6842F001021A604FF4004164
:1003300000F040FC0D4B1A6842F001021A600848B8
:10034000022100F0EBFC50B10548022100F0ECFC6A
:1003500005484FF40041BDE8084000F029BC08BD45
:10036000000400401400004000000240140001405E
:10037000F7B539480121202200F073FB002858D03E
:1003800020223548012100F05DFB34484FF48051B4
:1003900000F013FC324800F0E4FC0023314D002251
:1003A00025F813201E01092206F10D04A41A2E4976
:1003B00035F8130031F8141001F0010191400143A8
:1003C00089B2013A25F81310D11DEDD10133B3F5EF
:1003D000FA7FE3D100242F19244E822130683A4657
:1003E000202300F0BCFE0028F6D02034B4F5707F46
:1003F000F1D138238DF8003037238DF801300D23EB
:100400008DF802300A238DF803302F238DF8043045
:100410006E238DF80530306882210DF1020202232F
:1004200000F09DFE0028F6D0114B1A6842F0010240
:100430001A6009480121042200F013FB48B1064864
:100440000121042200F0FEFA04484FF4005100F0AC
:10045000AFFB03B0F0BD00BF00640240000C0240DF
:1004600000040040183F002014000020143F00202A
:10047000140400401FB5CC48CC4C00F075FA40F293
:10048000016000F0FDFDCA48012100224FF6FF7314
:1004900000F09BFB002102224FF6FF73C44800F0DE
:1004A000B6FB40F2046000F0EBFD00210A464FF677
:1004B000FF73C04800F089FB40F2036000F0E0FDEC
:1004C000BD48012100224FF4704300F07EFB012261
:1004D0004FF47043B848002100F099FBB6484FF440
:1004E000805100F065FBB4484FF4405100F062FBCE
:1004F00046F26311AE4800F05BFB4FF4C06000F0C1
:10050000BFFD40F2876000F0BBFD4FF4C053AB4825
:100510000221002200F059FBA8480A214FF4C052E2
:1005200000F08FFBA548022100224FF4807300F0F9
:100530004CFBA248012100224FF4004300F045FB90
:100540004FF401439D480021022200F060FB4FF46C
:1005500080720121994800F074FB4FF4006000F0B4
:100560008FFD4FF0804000F095FB4FF08040072159
:1005700000F074FD4FF08040402100F0F7FB0021B7
:100580000B460A464FF0804000F0D3FB00214FF0AD
:10059000804000F0F8FB4FF0804000F0D3FB4FF0BC
:1005A000804000F0D4FB4FF080400F2100F0EDFBC5
:1005B00007224FF08040002100F003FC4FF0804004
:1005C000002100F0FDFC4FF08040002100F0DFFB37
:1005D00000210F224FF0804000F024FD4FF08040BA
:1005E00000F0BAFB4FF4086000F04AFD744800F0D8
:1005F00051FB00210B460A46714800F09AFB7048F7
:10060000002100F0C0FB0A216D4800F0BEFB6C48E1
:1006100000F0B4FB6A484FF4007100F07BFB6848BF
:10062000152100F01BFD6648202100F09FFB0722EA
:100630006348002100F0C5FB0021614800F08EFCFA
:100640005F4800F0FFFC5E48002100F0A0FB0021A5
:1006500005225B4800F0E6FC594800F07DFB40F6BF
:10066000010000F00DFD1D2001F098F9554800F043
:1006700011FB00210B460A46524800F05AFB0021AC
:10068000504800F080FB4F4800F05CFB4D4800F004
:100690005EFB4C48A52100F078FB07224948002169
:1006A00000F08FFB4748002100F08AFC45480021FC
:1006B00000F06DFB91220021424800F0B3FC41485C
:1006C00000F04AFB03213F4800F024FB3D4800F0C6
:1006D00048FB4FF0804000F044FB394800F041FBFC
:1006E00040F2166000F0CCFC392001F057F9364892
:1006F000012100F081F9344801214FF4403200F02B
:10070000D4F9314801214FF4005200F0DAF94FF4E6
:1007100000622D48012100F0E0F92B48012100F092
:10072000F1F92948012100F0E4F92748012100F0FE
:10073000F2F925480121002200F0A7F92248234AB6
:10074000012100F01AFA2048214A012100F01DFA87
:100750001D4801214FF4FA5200F024FA4FF0406294
:100760001948012100F0E0F91748012100F0F3F9E0
:100770001548012100F0E0F91348012100F0F4F9D7
:1007800003230093134B01938023029312491348D0
:10079000134A144B00F094FC1349206000F0B6FE9D
:1007A000206800F0B7FCFBE760200008143F002041
:1007B0000004024000100240000C02400000024011
:1007C000000001400004004000640240101002409C
:1007D00014000020943E0020601F0008D020000874
:1007E000B41F000800000020CD01000804281CD818
:1007F000DFE800F003080D1217000C4B1B689B018B
:10080000FBD57047094B1B689803FBD57047074B16
:100810001B689907FBD57047054B1B689A07FBD5EA
:100820007047044B1B689B07FBD57047003802409C
:10083000703802407438024001280AD002D30228DE
:100840000ED07047094B1B6803F00303022BF9D14C
:100850007047064B1B6803F00303012BF9D1704767
:10086000024B1B689B07FBD1704700BF0838024052
:10087000042817D8DFE800F003080D0F11000A4B19
:100880001A6842F080720CE0074B1A6842F480321A
:1008900007E0054B02E0054B00E0054B1A6842F00B
:1008A00001021A60704700BF0038024070380240F1
:1008B00074380240042817D8DFE800F003080D0F51
:1008C00011000A4B1A6822F080720CE0074B1A687C
:1008D00022F4803207E0054B02E0054B00E0054BB7
:1008E0001A6822F001021A60704700BF0038024007
:1008F0007038024074380240034B1A6822F0030239
:1009000010431860704700BF08380240034B1A6854
:1009100022F4604242EA40301860704708380240D2
:10092000034B1A6822F4E05242EA802018607047B4
:1009300008380240034B1A6822F0F00242EA001025
:10094000186070470838024040EA036343F48003AC
:10095000520843EA8111531E024A41EA03411160E1
:10096000704700BF0438024010B504460220FFF76C
:100970007FFF0220FFF73AFF0020FFF7BDFF0120B5
:10098000FFF776FF0120FFF731FFE07B00B1012088
:1009900001F012F8207BFFF7CDFF607BFFF7C0FF6F
:1009A000A07BFFF7B3FF2279637920786188FFF796
:1009B000CBFF0E4B1A6842F080721A601A689201DF
:1009C000FCD5A06800F052FB0220FFF795FF002045
:1009D000FFF732FF064A23691360064B62691A600B
:1009E0000220BDE81040FFF765BF00BF003802409D
:1009F0000C00002010000020182313FB010310B589
:100A00001A6922F001021A6100221A619A615A6180
:100A1000DA611A6221225A62C1F34002120101F026
:100A20000104062313FB042303294FF03D0202FABD
:100A300003F303D882681343836010BDC268134375
:100A4000C36010BD30B5C1F3400401F001052401BD
:100A5000062313FB05439A40032994BF8260C260BA
:100A600030BD30B5C1F3400401F001052401062377
:100A700013FB0543032902FA03F294BF036843689A
:100A80001A420CBF0020012030BD1823103003FB98
:100A90000101802A0B680ABF23F4802323F0C003DE
:100AA00023F4E07313430B6070471823103003FBEB
:100AB00001010B6823F440330B600B681A430A6092
:100AC00070471823103003FB01010B6823F4C04367
:100AD0000B600B681A430A6070471823103003FB41
:100AE00001010B6823F4C0530B600B681A430A60C2
:100AF00070471823103003FB01010B6843F4806337
:100B00000B6070471823103003FB01010B6823F4BE
:100B100000730B6070471823103003FB01010B6852
:100B200043F480730B6070471823103003FB0101FE
:100B30000B681A430A60704738B5202205460C46F8
:100B40001035FFF77FFF182111FB04510B6843F0AC
:100B500010030B6038BD1823243003FB01010B6820
:100B600023F004030B6070471823103003FB0101CE
:100B70000B6843F001030B607047182303FB01016E
:100B80000B69DB0758BF8A617047182303FB01011B
:100B90000B69D80704D503F44023B3F5402F00D1E7
:100BA000CA6170471430182303FB01010A607047C3
:100BB00081617047090481617047436921EA03023A
:100BC0000B4042EA0343836170472DE9F041066818
:100BD000C568002443FA04F7FF0711D567004FF0FA
:100BE000030C0CFA07FC6FEA0C0C01FA07F80CEA8C
:100BF00006060CEA050502FA07F746EA08063D4331
:100C00000134102CE6D10660C560BDE8F0810129F1
:100C100041680CBF1943994370B541608468002155
:100C200043FA01F5ED0707D54D000326AE4024EA4F
:100C3000060402FA05F52C4301311029F0D1846035
:100C400070BDF0B5056A446A002342FA03F6F7075F
:100C500007D59E000F27B74025EA070501FA06F6DB
:100C600035430133082BF0D1002303F1080642FA83
:100C700006F6F60707D59E000F27B74024EA0704BB
:100C800001FA06F634430133082BEED105624462C3
:100C9000F0BD00001C4B984228D00DD8A3F500638E
:100CA00098421DD003F5806398421CD0B0F1804F6C
:100CB00029D14FF4806024E0144B98421CD004D812
:100CC000A3F58063984214D07047114B984204D02A
:100CD00003F58063984212D070474FF4906010E0A3
:100CE00040F201400DE040F202400AE040F20340D1
:100CF00007E040F2044004E040F2054001E040F229
:100D0000814000F0CBB97047000C00400014004057
:100D100000000140C3681943C160704703690B427A
:100D20000CBF002001207047036923EA0101016123
:100D3000704710B50468134324F45C7419430C43E2
:100D4000046010BD036823F08003036070470368EC
:100D500023F0080303607047036843F00103036056
:100D60007047036823F0010303607047436823F072
:100D7000700343604368194341607047436823F040
:100D800008034360704781627047C162704706295B
:100D900016D8DFE801F0041508150D151100836958
:100DA00043F0040302E0836943F480638361704786
:100DB000C36943F0040302E0C36943F48063C36181
:100DC0007047062900F2C880DFE811F00700C6006E
:100DD0003600C6006800C6009600836923F003034E
:100DE000836183698361836923F070038361072AC8
:100DF00000F2B280DFE802F03304080C1014181C73
:100E0000836943F0100347E0836943F0200343E024
:100E1000836943F030033FE0836943F040033BE0E4
:100E2000836943F0500337E0836943F0600333E0A4
:100E3000836943F070032FE0836923F44073836177
:100E400083698361836923F4E0438361072A00F2A5
:100E50008380DFE802F004060A0E12161A1E836968
:100E60001AE0836943F4805316E0836943F4005326
:100E700012E0836943F440530EE0836943F48043F6
:100E80000AE0836943F4A04306E0836943F4C04366
:100E900002E0836943F4E04383617047C36923F050
:100EA0000303C361C369C361C36923F07003C361F2
:100EB000072A51D8DFE802F03204080C1014181C7D
:100EC000C36943F0100346E0C36943F0200342E0E6
:100ED000C36943F030033EE0C36943F040033AE0A6
:100EE000C36943F0500336E0C36943F0600332E066
:100EF000C36943F070032EE0C36923F44073C361F8
:100F0000C369C361C36923F4E043C361072A23D8DB
:100F1000DFE802F004060A0E12161A1EC3691AE070
:100F2000C36943F4805316E0C36943F4005312E0ED
:100F3000C36943F440530EE0C36943F480430AE0BD
:100F4000C36943F4A04306E0C36943F4C04302E02D
:100F5000C36943F4E043C36170470000062915D814
:100F6000DFE801F0041408140C141000036A43F0C5
:100F700001030AE0036A43F0100306E0036A43F446
:100F8000807302E0036A43F4805303620B4B20F446
:100F900080629A4211D1032907D0052909D001297D
:100FA0000BD1036A43F0040306E0036A43F04003F5
:100FB00002E0036A43F4806303627047000001406B
:100FC000062915D8DFE801F0041408140C141000E9
:100FD000036A23F001030AE0036A23F0100306E02A
:100FE000036A23F4807302E0036A23F480530362EC
:100FF0000B4B20F480629A4211D1032907D00529B6
:1010000009D001290BD1036A23F0040306E0036A27
:1010100023F0400302E0036A23F480630362704715
:101020000000014006290CD8DFE801F0040B060B94
:10103000080B0A004263704782637047C2637047BF
:1010400002647047044B20F480629A4203D1436CDF
:1010500043F400434364704700000140836823F079
:10106000070383608368194381607047034B1A68E4
:1010700022F0070210431860704700BF003C024096
:10108000430903F1804303F50E3300F01F001A6893
:10109000012101FA00F0104318607047430903F181
:1010A000804303F50E3300F01F001A68012101FA96
:1010B00000F002431A601A6822EA000018607047C4
:1010C0002DE9F0410546006898460E4617468047D0
:1010D000069BC360079B0361BDF8203083820A4BE7
:1010E000C3660A4B83660A4B43660023C0F8D4509C
:1010F00080E8C001C0F8C430C0F8C830C0F8CC30B7
:10110000C0F8D030BDE8F081391700089317000807
:101110001918000808B5D0F8D4305B6A984708BDA4
:1011200037B5069CD0F8D4500094AC68A04703B003
:1011300030BD37B5002405468475C4752146224666
:1011400040230094FFF7ECFFD5F8D43028465B68C5
:1011500021469847EB6903B1984703B030BD10B5FD
:10116000D0F8D440E469A04710BD10B5D0F8D44001
:10117000246AA04710BD08B5D0F8D4301B69984741
:1011800008BD08B5D0F8D4309B69984708BD1988C8
:10119000012984BF012119801368C27D1A700120C2
:1011A00070474A8812B91A800120704700207047A2
:1011B00001201880136800221A70704719880229CC
:1011C00084BF02211980116800230B70126801206E
:1011D000537070471988022984BF02211980116851
:1011E00000230B70126801205370704738B5144605
:1011F0001A882568022A84BF02221A808988C9B207
:10120000FFF7BFFF003018BF0120287023680022BD
:101210005A70012038BD08B589880122C9B2FFF78C
:10122000AAFF012008BD08B589880022C9B2FFF7CE
:10123000A2FF012008BD10B50A7872B94C887F2C36
:101240000BD8D0F8D430847593F830201AB149887F
:101250005B68C9B29847012010BD002010BDF8B5E9
:101260004B88C27D9A4204460E4618D0C375D0F80A
:10127000D430DB689847D4F8C43083B1002363646A
:10128000E3646365E365254604F11007D5F8C430CF
:1012900013B12046718898470435BD42F6D101202C
:1012A000F8BD2DE9F04F05464888C7B2000A02286C
:1012B00089B01646984611D0032800F0E380012833
:1012C00040F020812B6813602B68B8F800201B7851
:1012D0009A4238BF1346A8F8003014E12B69136016
:1012E00002930D23D5F80490B8F8004002985F43AC
:1012F00009EB070319F807600393B44238BF264689
:101300001946324600F062FD029D19F80770A41BD1
:101310003544A4B200230693039B06981A7983B23E
:101320009A4240F2AA800C22534303980493D0F8C7
:10133000093004990B44D3F80490B9F1000F13D08D
:1013400099F800A0544538BFA2462846494652465F
:1013500000F03CFD99F80030CAEB040456441F44E9
:101360005544A4B2B6B2BFB2002305930598039BBF
:101370000499D3F8092083B2049811441258934277
:1013800078DA4FF0150B0BFB03FB8B6813F80BA0FF
:10139000009303EB0B09544538BFA2462846494643
:1013A000524600F013FD009BD9F80D1013F80B30D6
:1013B000CAEB040456441F445544A4B2B6B2BFB2AB
:1013C000A1B1D9F811A05445B8BFA2461FFA8AFAB4
:1013D0002846524600F0FAFCD9F81130CAEB040452
:1013E00056441F445544A4B2B6B2BFB2002307937B
:1013F000079899F8042083B29A4238D9D9F809C0DD
:10140000C3EB03130CEB030A1CF803B05C4538BFB5
:10141000A346284651465A468DE8081000F0D6FCEF
:101420009DE808101CF80330DAF80710CBEB040431
:101430005E441F445D44A4B2B6B2BFB2A1B1DAF8B3
:101440000BB05C45B8BFA3461FFA8BFB28465A4633
:1014500000F0BCFCDAF80B30CBEB04045E441F4414
:101460005D44A4B2B6B2BFB2079B0133BFE7059B90
:1014700001337AE7069B01334DE7029B5F80A8F8B2
:1014800000603DE02C6967B90923A3700423E37071
:101490002370B8F80030042B28BF0423A8F80030CC
:1014A0002BE0A868013F70B3EB689F422ADA8A8874
:1014B00040F209439A4225D150F8270000F020FD60
:1014C00001304300DBB22370B8F80020934228BFFC
:1014D0001346A8F800304FEA87090023B8F8002027
:1014E0005208013A934208DAAA6852F80920D15CFE
:1014F00004EB430201335180F0E70323637034604F
:10150000012000E0002009B0BDE8F08F002300EBCF
:101510008302D2F8C4202AB10133042BF7D14FF053
:10152000FF30704700EB83031046C3F8C4107047C8
:1015300038B54C78092C05D8044D55F824401CB119
:10154000A04738BD002038BD204638BD78200008AF
:1015500038B54C780B2C05D8044D55F824401CB1F7
:10156000A04738BD002038BD204638BDA020000867
:1015700010B54C78012C03D009D3032C03D004E020
:101580004C8834B101E04C882CB1002010BD034CD4
:1015900002E0034C00E0034CA04710BDED11000831
:1015A000271200081712000810B50C7814F0600F0D
:1015B00012D104F01F04012C0AD005D3022C0BD148
:1015C000BDE81040FFF7D4BFBDE81040FFF7B0BF43
:1015D000BDE81040FFF7BCBF002010BD10B50021D2
:1015E00004460122FFF7C7FD002384F82C3010BD0C
:1015F00038B50268838FC58ED279ED1A9542A8BF9F
:101600001546826BADB21A4400212B460446FFF703
:10161000ACFDA84205D02046FFF7E0FF4FF0FF30B9
:1016200038BDA38F0344A38738BD38B50368826BE8
:10163000DD79838F9D4204464FF000010FD22B4687
:10164000FFF78DFD022384F82C302368A26BD97933
:101650000A44A263DB79A28FD31AA38738BDFFF7B0
:101660007EFD032384F82C300023A387A36338BDB9
:101670002DE9F34104460E4600F14408002558F8D0
:10168000057057B92046314604F1380204F13C0395
:1016900002B0BDE8F041FFF787BF08EB05033178E2
:1016A00058791A7900EA01039A4203D00835202DAF
:1016B000E5D1E7E704F1400300932046314604F109
:1016C000380204F13C03B8470128EFD802B0BDE866
:1016D000F08110B5026982638A79CB7942EA0323EB
:1016E00083870446FFF7C4FF70B1A18F204619B16C
:1016F000BDE81040FFF799BF0B460A46FFF72FFDE4
:10170000042384F82C3010BD2046BDE81040FFF7BC
:1017100065BF70B5002500EBC504666C2EB10135C0
:10172000042DF8D14FF0FF3070BD84F8481084F8D4
:1017300049206364304670BD70B500F13006002565
:1017400005642946324608230446FFF70EFD0828A3
:1017500004D02046BDE87040FFF740BFE38E1BB1C8
:1017600094F93020002A05DA20463146BDE8704061
:10177000FFF7AFBFA28A9A42EBD32269A263226825
:10178000A587D2799A4234BF0523062384F82C30EA
:1017900070BD90F82C30062B10B5044610D0072BE6
:1017A00024D0052B33D1FFF723FF002833DBA38F91
:1017B000E28ED21A2368DB799A422CDC062310E0F1
:1017C000FFF716FF002826DB204604F13001FFF763
:1017D0004FFF48B100210B4620460A46FFF7BFFCE9
:1017E000042384F82C3010BD204610E000210B4665
:1017F0000A46FFF7BAFC002384F82C30236C1BB197
:10180000204604F1300198470023236410BDBDE851
:101810001040FFF7E3BE10BD90F82C30032B10B53D
:10182000044607D0042B07D0022B1CD1BDE8104082
:10183000FFF7FBBE072313E0036C13B100F1300187
:10184000984794F8303053B994F83130052B06D1CD
:10185000D4F8D430618E5B682046C9B29847002323
:1018600084F82C3010BDBDE81040FFF7B7BE000073
:101870001D4B02221A6053F8082C42F0800243F8F4
:10188000082C5A6A42F410225A62184B1A68002A2D
:10189000FBDA1A6842F001021A601A6812F00101BC
:1018A000FBD1134A1348136843F0804343F4705349
:1018B0001360114B1A6842F003021A600F4AC3F812
:1018C000001680231360A0F8D8300D4B1A6842F040
:1018D00001021A600B4A1A610F22C3F81428012270
:1018E000C3F80828704700BF1400005010000050D3
:1018F0000C0000500043002000080050240000505D
:101900000800005018280480FEE77047002218499C
:1019100018485318834204D2174BD35853500432FB
:10192000F5E7164A934203D200221A600433F8E71F
:10193000134B144C1A6842F470021A60124B9C420A
:1019400003D254F8043B9847F8E7104C104B9C42E4
:1019500003D254F8043B9847F8E7FEF78BFD0D4C93
:101960000D4B9C4203D254F8043B9847F8E700BF64
:10197000000000201400002004210008F44300208F
:1019800088ED00E00421000804210008042100087B
:10199000042100080421000804210008054B420925
:1019A00003EB820300F01F00012202FA00F018602E
:1019B000704700BF00E100E020B9064B1A6842F40E
:1019C000804205E0012804D1024B1A6802F48042EB
:1019D0001A60704700700040D0F8D430DB6AD3F84A
:1019E000002822F4FE6242EA0111C3F80018704791
:1019F0002DE9F04711F07F05089ED0F8D44003F0A0
:101A00007F073AD13F2BE26A02D9C2F8005909E0B8
:101A10001F2B01D9012103E00F2B8CBF02210321D1
:101A2000C2F80019E16ABAB2C1F81029E16AD1F826
:101A3000005945F00845C1F80059E16A42F00052EA
:101A400042F40022C0F8E020C1F8102BE26AD2F87C
:101A5000001B41F00841C2F8001B618EE26A9B083E
:101A600041EA03419162B0F8D82013449BB2A0F838
:101A7000D830A0F8DA30BDE8F08711F0800F4FEAD7
:101A8000824A2CD0B0F8D8C0E16A4FEA930805F139
:101A900040094CEA084241F82920E16AC444A0F810
:101AA000D8C001F511614FF0200C1CFB0511BFB22D
:101AB0000F604FF410671CFB0577E16A4AF018428B
:101AC00042F400427C58134343EA855323437B503E
:101AD0003EB30C2303FB05004666BDE8F087E26ACF
:101AE00005F1380147F4002740F8217002F5316C08
:101AF000202111FB05CC4AF01442CCF800704FF4C1
:101B0000306711FB0577E16A42F400427C581343C9
:101B100023437B502EB10C2303FB05008666BDE8F2
:101B2000F087BDE8F087B0F8DA30A0F8D830704719
:101B300010B5D0F8D43051B9D86AD0F8004912B1F4
:101B400044F4001401E024F40014C0F8004908062D
:101B500046BF01F07F0148315831490122B1DB6AAB
:101B6000CA5842F4001208E0DA6A885820F40010DB
:101B70008850DB6ACA5842F08052CA5010BD11F03A
:101B8000800FD0F8D4301ABF01F07F0148315831AE
:101B90004901DB6AC858C0F3405070470B0610D4A7
:101BA0004318583183F8DC20D0F8D4304901DB6A7F
:101BB0001AB1CA5842F0006202E0CA5842F080628C
:101BC000CA50704770B5D0F8D440E06A01F07F0188
:101BD000202500F5116015FB0100066836031BD4B3
:101BE00043F4002606604FF4106015FB0105E06A1F
:101BF0002E5846F004462E50E06A013100EB0130C9
:101C00000146C418641A002C04DD141A645841F803
:101C1000044BF6E7184670BD002070BDF7B50D46C1
:101C20001146B0F8F020934234BF1E461646D0F855
:101C3000D430DB6A921B6F1CA0F8F020044603EB43
:101C40000737324608467B1A032A034404DD1B6823
:101C500040F8043B043AF6E72AB102A91B6841F8B0
:101C6000043D00F0B3F8D4F8D430D96A202205F14D
:101C7000380001F5316112FB051154F820000860AD
:101C80002C444FF4306194F8DC00DB6A12FB05123F
:101C90000028D1580CBF4FF004404FF008400143DA
:101CA0003046D15003B0F0BDD0F8D420F8B5D36A97
:101CB0005E69B504044609D54FF400515961538E4D
:101CC000A0F8D830BDE8F840FFF733BAF00631D5B8
:101CD0001B6A03F4B012B2F5802F67D103F4F0123F
:101CE00003F00F05B2F5402FC3F30A13A4F8F03048
:101CF00014BF012202224FF47A7300BF013BFCD1D2
:101D000005EB4503134404EB83035B6E13B12046DC
:101D1000294698470135B4F8F0102D0300238B4273
:101D200005DAD4F8D420D26A0433AA58F7E700239E
:101D3000A4F8F0300025D4F8D430DB6A6F0103F644
:101D40000813DB59D9070ED50C2303FB05435B6E43
:101D500013B12046E9B29847D4F8D430DB6A03F6D1
:101D600008130122DA510135042DE4D1320508D5DA
:101D7000236A03B19847D4F8D430DB6A4FF4006289
:101D80005A61002E08DA636A03B19847D4F8D43058
:101D9000DB6A4FF000425A61330707D5A36A03B1EB
:101DA0009847D4F8D430DB6A08225A61F8BDD0F8DD
:101DB000D430DB6AD3F8042811B142F0020201E00A
:101DC00022F00202C3F8042870470000844641EA6A
:101DD000000313F003036DD1403A41D351F8043BA3
:101DE00040F8043B51F8043B40F8043B51F8043BF5
:101DF00040F8043B51F8043B40F8043B51F8043BE5
:101E000040F8043B51F8043B40F8043B51F8043BD4
:101E100040F8043B51F8043B40F8043B51F8043BC4
:101E200040F8043B51F8043B40F8043B51F8043BB4
:101E300040F8043B51F8043B40F8043B51F8043BA4
:101E400040F8043B51F8043B40F8043B51F8043B94
:101E500040F8043B51F8043B40F8043B403ABDD203
:101E6000303211D351F8043B40F8043B51F8043BA5
:101E700040F8043B51F8043B40F8043B51F8043B64
:101E800040F8043B103AEDD20C3205D351F8043B34
:101E900040F8043B043AF9D2043208D0D2071CBF00
:101EA00011F8013B00F8013B01D30B880380604629
:101EB000704700BF082A13D38B078DD010F003039F
:101EC0008AD0C3F10403D21ADB071CBF11F8013B0F
:101ED00000F8013B80D331F8023B20F8023B7BE75E
:101EE000043AD9D3013A11F8013B00F8013BF9D289
:101EF0000B7803704B7843708B7883706046704723
:101F000020F0030110F00300C0F1000051F8043B81
:101F100000F1040C4FEACC0C6FF000021CBF22FA57
:101F20000CF213434FF0010C4CEA0C2C4CEA0C4C15
:101F3000A3EB0C0222EA030212EACC1204BF51F80E
:101F4000043B0430F4D013F0FF0F1FBF013013F433
:101F50007F4F013013F47F0F18BF0130704700BF6F
:101F600012010002020000408304405700020102F7
:101F7000030107050102400001000000000000000D
:101F80000007058202400001000000000000000080
:101F9000070583031000FF00000000000000000997
:101FA000040100020A000000721F00080000000087
:101FB000000000000902000002010080320420003D
:101FC00008090400000102020100901F00081C2003
:101FD000000813000000426C61636B205370686559
:101FE000726520546563686E6F6C6F676965730016
:101FF0004344432D41434D2044656D6F0044454D9E
:102000004F0000000100000000000000C11F000898
:1020100001000000000000009F1F000805240010C0
:10202000010524010001042402000524060001002A
:102030000800600002020000030600000005040121
:10204000001BB70000366E010800F000020500001A
:10205000030600000005040180C3C9010087930343
:1020600008005001020700000506000000050400FA
:1020700080DE800200BD0105BD11000800000000E7
:1020800000000000000000000000000037120008FF
:10209000A3120008000000008F1100085F12000862
:1020A000D511000800000000000000000000000042
:1020B0000000000000000000000000000000000020
:1020C0000000000000000000B1110008A31100088A
:1020D00071180008D9190008F1190008271B000819
:1020E000311B00089D1B00087F1B0008C51B000852
:1020F0001D1C0008A91C0008AF1D000800000050AE
:04210000010080005A
:10210400D61F0008F01F0008FD1F00080024F4007B
:042114000024F400AF
:040000050800190DC9
:00000001FF
