:020000040800F2
:1000000000A00020710200086F0200086D020008C5
:100010006D0200086D0200086D020008000000007B
:100020000000000000000000000000006F02000857
:100030006F020008000000006F0200086F02000855
:100040006D0200086D0200086D0200086D020008D4
:100050006D0200086D0200086D0200086D020008C4
:100060006D0200086D0200086D0200086D020008B4
:100070006D0200086D0200086D0200086D020008A4
:100080006D0200086D0200086D0200086D02000894
:100090006D0200086D0200086D0200086D02000884
:1000A0006D0200086D0200086D0200086D02000874
:1000B0006D0200086D0200086D0200086D02000864
:1000C0006D0200086D0200086D0200086D02000854
:1000D0006D0200086D0200086D0200086D02000844
:1000E0006D0200086D0200086D0200086D02000834
:1000F0006D0200086D0200086D0200086D02000824
:100100006D0200086D0200086D0200086D02000813
:100110006D0200086D0200086D0200086D02000803
:100120006D0200086D0200086D0200086D020008F3
:100130006D0200086D0200086D0200086D020008E3
:100140006D0200086D0200086D0200086D020008D3
:100150006D0200086D0200086D0200086D020008C3
:100160006D0200086D0200086D0200086D020008B3
:100170006D0200086D0200086D0200086D020008A3
:100180006D02000808B540F2952000F061F840F2D9
:10019000922000F05DF81648012100224FF48053B0
:1001A00000F034F81248012100224FF4005300F00F
:1001B0002DF80F48012100224FF4804300F026F86B
:1001C0000B484FF4805100F019F809484FF40051E2
:1001D00000F014F806484FF4804100F00FF8054B8A
:1001E00000BF013BFCD1044800F08AF8E8E700BFFB
:1001F00000100048400D030048590008436921EAF7
:1002000003020B4042EA0343836170472DE9F0414A
:100210000668C568002443FA04F7FF0711D5670094
:100220004FF0030C0CFA07FC6FEA0C0C01FA07F80C
:100230000CEA06060CEA050502FA07F746EA080684
:100240003D430134102CE6D10660C560BDE8F08165
:10025000430903F1804303F5043300F01F001A68DB
:10026000012101FA00F0104318607047FEE7704763
:100270000022184918485318834204D2174BD35808
:1002800053500432F5E7164A934203D200221A6013
:100290000433F8E7134B144C1A6842F470021A60E6
:1002A000124B9C4203D254F8043B9847F8E7104C99
:1002B000104B9C4203D254F8043B9847F8E7FFF7F1
:1002C00061FF0D4C0D4B9C4203D254F8043B984700
:1002D000F8E700BF000000209C080020D45A000866
:1002E000D808002088ED00E0CC5A0008CC5A00085D
:1002F000CC5A0008CC5A0008CC5A0008CC5A000846
:100300000FB400B5074A83B004AB106853F8042B50
:100310008168019300F008F803B05DF804EB04B0C5
:10032000704700BF280400202DE9F04FC5B01C46DF
:1003300089460692099002F08BFD0068119003F047
:100340004BFD099D14900B941DB1AB6B002B00F07D
:100350000B81B9F80C2093B299040AD4D9F864102F
:1003600042F4005321F40051A9F80C30C9F864108C
:100370009BB21A0740F1C280D9F81020002A00F081
:10038000BD8003F01A030A2B00F0C4809FED7A7B36
:100390008DED127B002334AC0D93049429932893A4
:1003A000169315930C9327942646DDF818C09CF8F5
:1003B0000030002B00F0DC80252B00F0D9800CF100
:1003C000010202E0252B00F08B80144601322378D5
:1003D000002BF7D10698251A7DB1289B299A0698FB
:1003E000306001332A44072B75602992289300F36B
:1003F000A48008360C9929440C912378002B00F036
:10040000A4800023651C94F801808DF87F304FF0A4
:10041000FF341A460A930593069507942B46013339
:10042000A8F12001582900F2FE83DFE811F03D0217
:10043000FC03FC030903FC03FC03FC03FC03FC03B7
:10044000FC0344023902FC0360003B03FC037B0312
:100450008203820382038203820382038203820374
:100460008203FC03FC03FC03FC03FC03FC03FC030E
:10047000FC03FC03FC035903A303FC03A303FC03D9
:10048000FC03FC03FC039303FC03FC03DA03FC03FF
:10049000FC03FC03FC03FC03A902FC03FC03C902EC
:1004A000FC03FC03FC03FC03FC03FC03FC03FC0354
:1004B000FC03FC0310032203A303A303A303DF0233
:1004C0002203FC03FC03E802FC03F40210022202F4
:1004D0005102FC035A02FC03A900FC03FC03810245
:1004E0000699651A78E70A9C0B9164420A94059D67
:1004F00045F00405059593F8008090E70998494672
:1005000001F0EEF9A0B9B9F80C3003F01A030A2B88
:100510007FF43CAFB9F90E30002BFFF637AF0998E6
:10052000069A4946234601F09FF945B0BDE8F08F91
:100530004FF0FF3045B0BDE8F08F0998494627AA33
:1005400003F0B6FC40B934AE54E7299B23B10998B7
:10055000494627AA03F0ACFCB9F80C305B06E7D497
:100560000C9845B0BDE8F08F284602F0A7FAF0E6F7
:10057000069C42E7AFF3008000000000000000008E
:10058000059C0693A20640F106820B9DEB1D23F00D
:10059000070303F1080CD3E90045CDF82CC0012373
:1005A0004FF0000A8DF87FA00799002905DBDDF8E0
:1005B00014C02CF0800CCDF814C054EA050040F0B3
:1005C0004B830799002940F04783002B40F0BD84FE
:1005D000DDF814C01CF0010F00F0B78444AF3023E5
:1005E00007F8413D049DEC1BDDF81CC00025644567
:1005F000A8BFA446CDF820C01095BAF1000F02D0D4
:10060000089D01350895059B13F002030E9302D057
:10061000089D02350895DDF814C01CF0840CCDF857
:100620003CC040F016830A9DDDF820C0CCEB050BE2
:10063000BBF1000F40F30D83BBF1100F2999289AED
:10064000DFF828A527DD179710255746A246099CF5
:1006500006E0ABF1100BBBF1100F06F1080617DD39
:1006600001321031072A2991289237607560F0DD38
:100670002046494627AA03F01BFC00287FF46CAFF4
:10068000ABF1100BBBF1100F2999289A34AEE7DCBF
:100690005446BA46179F01320BEB010C072ACDF8DE
:1006A000A4C0289286E8000C00F39E849DF87FA0E9
:1006B0000836BAF1000F0FD0289B01330CF1010C62
:1006C0000DF17F010122072BCDF8A4C0289386E805
:1006D000060000F3208408360E9B73B1289B01337B
:1006E0000CF1020C20A90222072BCDF8A4C02893FC
:1006F00086E8060000F31C8408360F9D802D00F06C
:100700004C83079A151B002D3DDD102D289BDFF82B
:1007100060A42CDD51460794AA464FF0100B6246A8
:10072000099C0D4606E0AAF1100ABAF1100F06F175
:10073000080617DD01331032072B2992289386E82B
:100740002008F0DD2046494627AA03F0B1FB002827
:100750007FF402AFAAF1100ABAF1100F299A289B70
:1007600034AEE7DC9446079C2A4655469246013350
:10077000AC44072BCDF8A4C02893C6F800A0756040
:1007800000F3BD830836059DEB0500F1A682289B8A
:1007900037600133A444072BCDF8A4C074602893BC
:1007A00000F397830836059C620740D50A9D089898
:1007B0002C1A002C3BDD102C289BDFF8B0A322DD87
:1007C00010256246DDF82480574604E0103C102CCA
:1007D00006F1080615DD01331032072B2992289304
:1007E00037607560F2DD4046494627AA03F060FB9A
:1007F00000287FF4B1AE103C102C299A289B34AE0F
:10080000E9DC9446BA460133A444072BCDF8A4C0D2
:100810002893C6F800A0746009DD0998494627AA04
:1008200003F046FB00287FF497AEDDF8A4C00C9CD3
:1008300008980A9DA842ACBF241864190C94BCF116
:10084000000F40F052830023289334AEADE5DDF86D
:1008500014C006931CF0200300F0CE810B9CE31D16
:1008600023F0070303F108050B95D3E900450023A6
:1008700096E60B9ADDF814C00693151D30234FF051
:1008800078084CF0020CB7488DF880300B9514684E
:10089000CDF814C000258DF88180169002237FE6E4
:1008A00093F800802B22BAE593F80080002A7FF4A9
:1008B000B6AD2022B3E50B9C0B9D24680A94002C56
:1008C00005F10401FFF60FAE0B9193F80080A6E549
:1008D000DDF814C04CF0200CCDF814C093F8008063
:1008E0009DE50B9C069327684FF0000A8DF87FA0CA
:1008F000251D002F00F07986079C002C3846C0F299
:100900002E865146224602F0B3FD002800F0B28642
:10091000079C0B95C01BA042B8BF044624EAE475AF
:10092000CDF81CA0CDF840A008959DF87FA064E606
:10093000059D8C4C0693AF0616948DF87F2047D505
:10094000DDF82CC00CF1070323F0070303F10804C2
:100950000B94D3E90045DDF814C01CF0010F00F042
:10096000F88254EA050000F0F48230234CF0020CC7
:100970008DF880308DF88180CDF814C002230FE609
:10098000DDF814C006934CF0100CCDF814C0059C93
:10099000A2063FF5FAAD059CE30600F13483DDF8CD
:1009A00014C01CF0400F00F02E83DDF82CC0BCF802
:1009B00000400CF1040C00250123CDF82CC0EFE51C
:1009C000059D694C0693AF068DF87F201694B7D429
:1009D000059DED0640F1EF84DDF82CC0DCF8004009
:1009E0000CF1040CCDF82CC00025B4E7DDF814C0E0
:1009F0004CF0400CCDF814C093F800800FE593F84C
:100A00000080B8F16C0F194600F07B85059D45F01C
:100A10001005059503E5DDF814C006931CF0200FC2
:100A20008DF87F2000F0A7840B9C21680C9CE517B3
:100A30002B460B9D224604350B95C1E90023B4E4F7
:100A4000059D45F00105059593F80080E7E40B9AB4
:100A50000B9D069312688DF8A8200023012404350D
:100A60009A4608940B958DF87F30079310932AAF20
:100A7000C9E5059C0693A3068DF87F203CD50B9D08
:100A8000E91D21F00701D1E9002308310B9114463B
:100A90001D46002A73F10000C0F2D1839DF87FA0AB
:100AA000012381E593F80080B8F12A0F03F10100DA
:100AB00000F0B886A8F13001092998BF002300F2A0
:100AC000298610F8018B03EB830301EB4303A8F1A4
:100AD00030010929F5D943EAE373079303469FE4FC
:100AE000DDF814C006934CF0100CCDF814C0059C32
:100AF0008DF87F20A306C2D4DDF814C01CF0100FBF
:100B000040F0B382059C670640F1AF82DDF82CC04F
:100B1000BCF900400CF1040CE51722462B46CDF839
:100B20002CC0B6E7059D45F08005059593F800803B
:100B300075E40024A8F130010A94204613F8018BD3
:100B400000EB800001EB4000A8F130010929F5D944
:100B50000A9065E4059D45F00805059593F8008029
:100B60005DE400BF805900086C5900084C5900082A
:100B7000A0590008059C069325078DF87F2040F1B9
:100B80000E840B9DEB1D23F0070393ED007B8DED91
:100B9000127B03F1080CCDF82CC09DED120B03F075
:100BA0009DF8012840F05583DDE912010022002361
:100BB00004F05AFB002840F033859DF87FA0DDF853
:100BC00014C09F4F9F4B002503242CF0800C0894E9
:100BD0000795CDF814C0B8F1470FD8BF1F46109540
:100BE0000BE5059D069345F010050595DDF814C04D
:100BF0001CF020037FF432AEDDF814C01CF01002AC
:100C000040F03F82DDF814C01CF0400300F0398250
:100C1000DDF82CC0BCF800400CF1040C1346002594
:100C2000CDF82CC0BCE406938DF87F20B8F1000FFE
:100C30003FF48BAC00234FF0010C9A46CDF820C056
:100C40008DF8A8808DF87F300793109364462AAF03
:100C5000D9E4DDF8A4C02CE5012B00F0E380022BE1
:100C60000DF1CF0318D1DDF858C0194604F00F007C
:100C7000220942EA05720F462B091CF80010397050
:100C800052EA030014461D4607F1FF31EED1049DE0
:100C9000CDE91A23EC1BA7E4E00840EA457004F014
:100CA0000702E908303250EA010C1F461A70044668
:100CB0000D4603F1FF33EFD1059CCDE91801E007A4
:100CC000394640F1B880302A00F0B580049D1F46B7
:100CD0003023EC1B01F8013C86E4B8F1650F40F3CA
:100CE000B780DDE9120100220023CDF80CC004F02A
:100CF000B1FADDF80CC0002800F02E81289B524A82
:100D0000326001330CF1010C0122072BCDF8A4C095
:100D10002893726000F36F830836219B0D9CA342D9
:100D200003DB059DEF077FF53EAD289B149D119CCD
:100D300034600133AC44072BCDF8A4C07560289310
:100D400000F3E88308360D9D6C1E002C7FF72BAD59
:100D5000102C289BDFF8F4A040F39C8110256246FC
:100D6000DDF82480574604E00836103C102C40F390
:100D70008F8101331032072B2992289337607560D9
:100D8000F2DD4046494627AA03F092F800287FF496
:100D9000E3AB299A289B34AEE7E70A980899451AED
:100DA000002D7FF7AEAC102D289BDFF8A0A02CDD26
:100DB00051460E94AA464FF0100B6246099C0D4610
:100DC00006E0AAF1100ABAF1100F06F1080617DDC5
:100DD00001331032072B2992289386E82008F0DD92
:100DE0002046494627AA03F063F800287FF4B4ABF5
:100DF000AAF1100ABAF1100F299A289B34AEE7DC49
:100E000094460E9C2A46554692460133AC44072B25
:100E1000CDF8A4C02893C6F800A0756000F3028244
:100E200008366EE4002D08BF0A2C80F03F8144AFE5
:100E3000303407F8414D049DEC1BFFF7D5BB00BFD4
:100E4000605900085C5900089C590008A059000826
:100E50000D9C012C289C40F3A78101340CF1010565
:100E60000123072C299528943760736000F3B7811C
:100E7000083614981199316001340544072C2995DE
:100E80002894706000F3C2810836DDE91201002267
:100E9000002304F0DFF9002840F0BD800D9A0134F2
:100EA000531E01371D44072C289429953760736021
:100EB00000F389810836DDF854C00134AC44159D37
:100EC000CDF8A4C023AB072C289486E828007FF730
:100ED00069AC0998494627AA02F0EAFF00287FF486
:100EE0003BABDDF8A4C034AE5DE40998494627AABF
:100EF00002F0DEFF00283FF4A6ACFFF72DBB0998F7
:100F0000494627AA02F0D4FF00287FF425ABDDF87C
:100F1000A4C034AE37E40998494627AA02F0C8FFB6
:100F200000287FF419ABDDF8A4C034AEFFF7D4BBC2
:100F30000998494627AA02F0BBFF00287FF40CABB2
:100F4000DDF8A4C034AEFFF7D8BB079C34AFFFF781
:100F50004BBB0223FFF724BB219B002B40F357829E
:100F60000D9C109DDDF83480AC42A8BF2C46002CAF
:100F7000B8440BDD289B37600133A444072BCDF820
:100F8000A4C07460289300F3FA820836109D24EA06
:100F9000E4742C1B002C40F3B180102C289BDFF84C
:100FA0000CA740F31B8251461025BA466246DDF875
:100FB00024B00F4604E00836103C102C40F30A829F
:100FC00001331032072B2992289337607560F2DDC8
:100FD0005846494627AA02F06BFF00287FF4BCAAB6
:100FE000299A289B34AEE7E70998494627AA02F0D8
:100FF0005FFF00287FF4B0AA9DF87FA0DDF8A4C0B1
:1010000034AEFFF756BB0B9D2C6804350B950123BE
:101010000025FFF7C5BA0D9B5F1E002F7FF74BAF72
:10102000102FDFF888A640F3E6804FF01008DDF8B7
:1010300024B004E00836103F102F40F3DC80013468
:101040001035072C29952894C6F800A0C6F804800E
:10105000F0DD5846494627AA02F02AFF00287FF40F
:101060007BAA299D289C34AEE5E70B9DDDF82CC0BA
:101070002C680CF1040CE517CDF82CC022462B4649
:1010800007E50B9D2C6804350B950025FFF788BA02
:101090009446BA460133A444072BCDF8A4C0289344
:1010A000C6F800A074607FF77DAB12E70DF1CF0B9F
:1010B000204629460A22002304F026F930328BF814
:1010C0000020204629460A22002304F01DF9044688
:1010D0000D4654EA050C5F460BF1FF3BE8D1049D39
:1010E000EC1BFFF781BA0998494627AA02F0E0FEF7
:1010F00000287FF431AADDF8A4C034AE109D219CF5
:101100002F440D9DAC4240DB059DE8073DD40D9872
:10111000C7EB0805041BAC42B8BF2546002D0BDD0C
:10112000289B37600133AC44072BCDF8A4C0756011
:10113000289300F34B82083625EAE575641B002CE2
:101140007FF731AB102C289BDFF860A5A2DD1025BE
:101150006246DDF82480574603E00836103C102C28
:1011600096DD01331032072B299228933760756082
:10117000F3DD4046494627AA02F09AFE00287FF494
:10118000EBA9299A289B34AEE8E7289B119D35608E
:10119000149D75600133AC44072BCDF8A4C028938F
:1011A00000F307820836B2E7059DE9073FF555AE23
:1011B00001340CF101050123072C2995289437608F
:1011C00073607FF777AE0998494627AA02F070FE50
:1011D00000287FF4C1A9299D289C34AE6BE60998AC
:1011E000494627AA02F064FE00287FF4B5A9299D8C
:1011F000289C34AE3DE601343D44072C29952894C3
:10120000C6F800A077607FF755AEDCE7099849463D
:1012100027AA02F04DFE00287FF49EA9299D289C54
:1012200034AE32E60998494627AA02F041FE00286A
:101230007FF492A9DDF8A4C034AEFFF762BA4FF094
:101240002D0A644265EB45058DF87FA00123FFF769
:10125000ABB99DED120B02F041FD002800F0238197
:10126000079C013428F0200A00F06F82BAF1470F82
:1012700004D1079C002C08BF01240794DDE9122348
:10128000059D002B45F480750E95C0F255829DEDAD
:10129000127B8DED1C7B4FF0000BB8F1660F00F058
:1012A000DA81B8F1460F00F0D681BAF1450F0CBFD4
:1012B000079C079D099808BF651C22AA25AB8DE8ED
:1012C0000C009DED1C0B02212A4621AB00F004FC12
:1012D000B8F1670F074602D0B8F1470F05D1DDF826
:1012E00014C01CF0010F00F03382BAF1460F07EB77
:1012F000050400F0CB81DDE91C010022002303F08E
:10130000A9FF002840F0A581259B9C4206D93021E9
:101310005A1C25921970259B9C42F9D8DB1BBAF107
:10132000470F0D9300F08D81B8F1650F40F3928265
:10133000B8F1660F00F03C82219C10940D9C109D2A
:10134000AC4200F3EC81DDF814C01CF0010F40F05A
:101350003C8225EAE5732C464FF06708BBF1000F8D
:1013600040F064810E9D08930595CDF81CB09DF862
:101370007FA0FFF742B9DDF814C01CF0100F40F059
:10138000AB80DDF814C01CF0400F00F03D810B9CD9
:101390000C9D236804340B941D80FFF706B80B9C4A
:1013A000E31D23F0070393ED007B08338DED127BE3
:1013B0000B93FFF7F2BB059C640640F18680DDF8D5
:1013C0002CC0BCF800400CF1040C0025CDF82CC05A
:1013D000FFF7C1BA94463A46574692460133A444B1
:1013E000072BCDF8A4C02893C6F800A074603FF77F
:1013F0007AAE083682E60998494627AA02F058FDD7
:1014000000287FF4A9A8DDF8A4C034AE85E4289AAA
:10141000A249316001320CF1010C0121072ACDF8FB
:10142000A4C0289271605FDC08361C462CB90D9D63
:101430001DB9059DED077FF5B6A9289B149A119D4E
:10144000356001336244149D2992072B75602893FF
:1014500000F3538108366442002C72DD102CDFF853
:101460004CA240F39B8051461025BA46DDF82480FB
:101470000F4604E00836103C102C40F38C800133FA
:101480001032072B2992289337607560F2DD4046B1
:10149000494627AA02F00CFD00287FF45DA8299A8E
:1014A000289B34AEE7E7059D7D4F7E4B9DF87FA0DE
:1014B0000790032425F08005089405951090B8F155
:1014C000470FD8BF1F46FFF798B80B9D2C6804350F
:1014D0000B950025FFF73FBA0B9C0C9D2368043445
:1014E0000B941D60FEF761BF0998494627AA02F0D8
:1014F000DFFC00287FF430A8219CDDF8A4C034AEC6
:1015000094E7059C91F8018044F020040133059490
:10151000FEF785BF0998494627AA02F0C9FC0028B2
:101520007FF41AA8DDF8A4C034AE0CE4099849464B
:1015300027AA02F0BDFC00287FF40EA8299A289B58
:1015400034AEDDF834C00D9C376001339444072B72
:10155000CDF8A4C0289374607FF724A9B9E4CDF82E
:101560001CA002F039FC0B9520EAE07C079DCDF829
:1015700020C0044610959DF87FA0FFF73EB809985B
:10158000494627AA02F094FC00287EF4E5AFDDF876
:10159000A4C034AEFAE4394657468A4601332244A1
:1015A000072B29922893C6F800A07460BEDC083689
:1015B000C7E70998494627AA02F07AFC00287EF47A
:1015C000CBAF219CDDF8A4C034AEA0E50998494614
:1015D00027AA02F06DFC00287EF4BEAF219C0D9975
:1015E000DDF8A4C00C1B34AEA6E5079C1097062CB2
:1015F00028BF062424EAE47CBA4607970B95CDF869
:1016000020C0294FFEF7F9BFDDF82CC00C9CDCF898
:1016100000300CF1040CCDF82CC01C60FEF7C5BEE8
:101620004FF02D0A8DF87FA0FFF7C9BA0E9D0595E2
:101630004FF02D0A002508938DF87FA00795FEF73F
:10164000DFBF219BDC1C33DB079C9C4230DB10930B
:1016500074E6234662E622AA25AB8DE80C000998C1
:10166000079A9DED1C0B032121AB00F035FA079D75
:1016700007463AE624EAE47CCDF820C0079C0B95A7
:10168000079010909DF87FA0FEF7B7BF3B78302BF6
:1016900000F0A280219D2C442DE600BF9C5900083B
:1016A000685900086459000894590008A0590008B6
:1016B000A8F10208013B002B2193BABF5B422D2207
:1016C0002B22092B8DF88C808DF88D2042DC303355
:1016D00030228DF88F308DF88E2024AB0D9D0D9C1F
:1016E00023AA9A1A012D1592144440F391800134D3
:1016F000002524EAE473109530E60998494627AAA4
:1017000002F0D6FB00287EF427AF219C299A289B63
:1017100034AEA0E6002403460794FEF781BE109C79
:101720000D9D002CD4BFC4F1020401242C4424EAF2
:10173000E4734FF0670811E6139912981C9001F1B9
:1017400000411D914FF02D0BA7E50625079595E566
:10175000259BE3E50DF19A00414DDA1785FB035116
:10176000C2EBA10101EB81040246A3EB440303F1A8
:101770003000092910700B4602F1FF30ECDC01F15A
:1017800030030DF19B04D9B2844202F8011C63D9E5
:101790000DF18D00134601E013F8011BA34200F880
:1017A000011FF9D10DF5887CC2EB4C03F63B95E7A0
:1017B000219D1095002D079C23DDDCB9059DE807D0
:1017C00018D4109C24EAE473C8E5109D6C1C24EA2C
:1017D000E4734FF06708C1E5DDE91C010022002336
:1017E00003F038FD00287FF455AFC5F101052195C0
:1017F0002C4480E5079D6C1C109D2C4424EAE47366
:10180000ACE514BB059DE9071FD401231C46A5E5E3
:10181000DDF814C01CF001037FF469AF109324EAD3
:10182000E4739BE50B9DDDF82CC02D6893F80180D7
:1018300007950CF10401002D0B910346BEF6EFADA8
:101840004FF0FF340794FEF7EABD079DAC1C24EA75
:10185000E47383E5219B2DE70DF18E033EE700BF86
:1018600067666666AFF300802DE9F0430C46ADF283
:101870006C4DB1F80C90E769496EB4F80E8019917F
:101880001AAD4FF480664FF0000E079729F0020959
:10189000676A00956946049502960596ADF80C9026
:1018A000ADF80E800997CDF818E00646FEF73CFD2E
:1018B000051E07DB3046694601F0E4F8002818BF32
:1018C0004FF0FF35BDF80C305B0603D5A38943F01C
:1018D0004003A38128460DF26C4DBDE8F08300BFA4
:1018E0002F4B1B6870B506460C4613B19A6B002A45
:1018F00036D0A589ABB219070CD52269AAB113F06D
:1019000001011ED0636900215B42A361A160F2B1B5
:10191000002070BDDA063BD55B0725D4226945F06F
:101920000803A3819BB2002AE9D103F42071B1F529
:10193000007FE4D03046214601F08EFAA389226967
:10194000DDE7980758BF6169A160002AE0D1A3894B
:101950001A06DDD543F04003A3814FF0FF3070BD80
:10196000184601F0ABF8C4E7216B49B104F140031C
:10197000994203D0304601F06DF9A5890023236315
:1019800025F02405002322696360ADB22260C6E71A
:1019900045F04005092333604FF0FF30A58170BD4D
:1019A000280400202DE9F04F03690D699D4283B0A2
:1019B000834600F38B80013D01F1140400F1140A09
:1019C00054F825205AF825300132B3FBF2F8AA006A
:1019D000914600925244A1440192B8F1000F3DD0CB
:1019E0004FF0000E7046224653468C4652F8046B68
:1019F0001968B7B2360C07FB08EE06FB08F606EBD3
:101A00001E461FFA8EF7C71BB0B217FA81F7C0EB5C
:101A1000114000EB2740BFB247EA0047914543F829
:101A2000047B4FEA20404FEA164EDFD2009A5AF864
:101A30000230614693B9019A131F9A450CD252F8AD
:101A4000043C4BB9A2F1080302E01A68043B1AB93E
:101A50009A4505F1FF35F8D3CBF81050584602F0FF
:101A600055F800282EDB08F101085346002254F8EF
:101A7000046B1868B1B2521A360C12FA80F1C6EB38
:101A8000104202EB214289B241EA0241A14543F8EA
:101A9000041B4FEA2242EAD25AF825200AEB8503BA
:101AA00082B91A1F92450BD253F8042C42B9083B55
:101AB00002E01A68043B1AB99A4505F1FF35F8D3DC
:101AC000CBF81050404603B0BDE8F08F002003B0C3
:101AD000BDE8F08F000000002DE9F04F9DB00446F6
:101AE0000491016C269D069209935BEC10AB49B101
:101AF000436C4B60012202FA03F38B6001F00EFE8F
:101B000000232364BBF1000FD94635DB00232B6093
:101B1000A54B1A4609EA0303934216D0002200237C
:101B20005046594603F096FB56465F46804648B3FA
:101B3000099E01233360279E002E00F0C9809B4838
:101B4000306001381DB0BDE8F08F099E42F20F737E
:101B50003360BAF1000F00F0A4809548279E002E54
:101B6000F0D0C378002B00F0B58000F10803279E69
:101B700033601DB0BDE8F08F01232BF000492B60CE
:101B8000CB46C5E7204647EC106B1BA91AAA02F00A
:101B90004BF85FEA19550C9040F08C801A9F1B9D02
:101BA0006FF482633D449D42C0F297821F3305F279
:101BB00012425B1B09FA03F32AFA02F243EA02001B
:101BC00003F06AF80126013DB846A1F1F8711896B4
:101BD0000022784B02F022FF6DA3D3E9002303F02B
:101BE000D1F86DA3D3E9002302F01AFF0646284678
:101BF0000F4603F061F86AA3D3E9002303F0C2F8AB
:101C000002460B463046394602F00AFF06460F46AA
:101C100003F052FB3946089000223046002303F0BF
:101C200023FB002840F02A82089E162E00F2238211
:101C3000614B03EBC603D3E9000152465B4603F058
:101C400031FB002800F04E82013E089600261096D7
:101C5000C5EB0805013D079500F12A8200260A968A
:101C6000089E002EC0F21882DDF81CE00F96B644E4
:101C70000026CDF81CE00E96049E092E2CD8052EC9
:101C8000C4BF043E04960499A1F10203CCBF002610
:101C90000126032B22D8DFE813F0AE03A302B7031B
:101CA000AB04464A424BC9F3130000280CBF104650
:101CB000184653E7CBF3130343F07F51CDF8608010
:101CC0005046A5F2FF3541F44011DDF868807FE70A
:101CD0003B4837E7C31C4AE70026049600256564A5
:101CE0002946204601F0F4FC4FF0FF3901260B9005
:101CF00006952064CDF844900D961B9B002BC0F2F6
:101D0000D180089E0E2E00F3CD802B4B03EBC60333
:101D100093ED007B069E002E8DED047BC0F2778351
:101D2000DDE904235946504603F056F903F0C4FA9E
:101D3000054602F0C1FFDDE9042303F023F80B465A
:101D400002465946504602F069FEDDF82CE005F1E6
:101D50003003B9F1010F06460F468EF800300EF140
:101D6000010B61D00022174B03F00CF80022002376
:101D700006460F4603F06EFA00287ED1DDF82C806F
:101D80000B9B0694C844DDE904AB03F1020926E08D
:101D900061436F63A787D23FB3C8608B288AC63F71
:101DA000FB799F501344D33F0000F07F9D590008FA
:101DB000BC5900080000F83FD0590008B05900088D
:101DC0009C5900080000244002F0DCFF00220023A0
:101DD00006460F4603F03EFA002840F0D3835246F1
:101DE0005B463046394603F0F7F803F065FA0546DE
:101DF00002F062FF52465B4602F0C4FF02460B4609
:101E00003046394602F00AFE05F1300EC14509F8A8
:101E100001EC4C4606460F464FF00002A94B09F173
:101E20000109D1D1A346069C32463B46304639468D
:101E300002F0F6FD06460F463246DDE904013B4658
:101E400003F012FA40B9DDE9040132463B4603F0E3
:101E500001FA90B1EB0710D51BF8015C0B9A05E075
:101E60009A4200F0318413F8015C9B46392D0BF146
:101E7000FF33F5D06A1CD2B21A7020460C9901F0DB
:101E80004DFC089E731C099E00228BF800203360D5
:101E9000279E002E00F01E830B98C6F800B01DB0E0
:101EA000BDE8F08F0D9E002E00F00781049E012EEC
:101EB00040F3D5820E9E09F1FF37BE42C0F29B83EC
:101EC000F71BB9F1000FC0F292840A9D4B460A9E9F
:101ED0001E440A96079E20461E440121079601F0E3
:101EE000C1FC064665B10799002909DD0B460A9A2F
:101EF000AB42A8BF2B46D21AC91A0A92ED1A079113
:101F00000E9B002B1BDD0D99002900F06A83002F2A
:101F100011DD31463A46204601F04CFD0646314679
:101F20000C9A204601F0A8FC0C998046204601F04E
:101F3000F5FBCDF830800E9BDA1B40F08A82012140
:101F4000204601F08FFC0F990029804605DD0146EF
:101F50000F9A204601F02EFD8046049A012A40F394
:101F6000CB8200270F99002940F0AA820120079B0D
:101F7000034413F01F0300F0A780C3F12002042ADA
:101F800040F3C9840A9ADDF81CE0C3F11C031A442B
:101F90009E440A921D44CDF81CE00A9B002B05DDEF
:101FA0000C991A46204601F053FD0C900799002920
:101FB00005DD4146079A204601F04AFD8046109A09
:101FC000002A40F06282B9F1000F40F3B0820D9A0E
:101FD000002A40F089800D9D0C9FDDF82CB006E0B2
:101FE000394620460A22002301F0A2FB0746384664
:101FF0004146FFF7D7FC30300BF805000135A94505
:10200000EEDCDDF82CB00C978246B9F1010FACBFC5
:10201000CB440BF1010B00250C990122204601F065
:1020200017FD41460C9001F071FD002840F311832B
:102030001BF8012C0B9905E0994200F09A8213F8E5
:10204000012C9B46392A0BF1FF33F5D001321A706F
:102050004146204601F062FB002E3FF40EAF2DB149
:10206000B54203D02946204601F058FB31462046B0
:1020700001F054FB01E701261096E9E5089802F00B
:102080001BFE32463B4603F0E5F800287FF4CCAD5A
:10209000089E013E0896C7E50A9EDDF820E0CEEBDB
:1020A00006060A96CEF100060E9600260F96E3E588
:1020B0006E420A9600260796D2E50E9F0A9D0D9E57
:1020C00010E700BF000024401C230A99079A194416
:1020D0001A440A911D4407925FE74048401B0AFAE0
:1020E00000F06DE51090B3E5002D05DD31462A4680
:1020F000204601F0ADFC0646002F40F0EF82374647
:102100000B9B0B9A4B440AF001010A930D91551C4D
:10211000DDF830900AE001F00BFB394606460A2252
:102120002046002301F004FB07460135414648469E
:10213000FFF738FC31468346484601F0E7FC3A4653
:1021400006904146204601F005FDC26805F1FF3EBC
:1021500003460BF1300ACDF81CE0002A40F08881DC
:1021600019464846039301F0D1FC039B02461946E9
:102170002046039201F0D2FA039A2AB9049919B9B8
:102180000D9B002B00F0A783069B002BC0F2428220
:1021900005D1049919B90D9B002B00F03B82002A50
:1021A00000F3B0820A9905F801AC8D42AB4600F00D
:1021B000BA8249460A220023204601F0B9FABE42FB
:1021C0008146314620464FF00A024FF00003A2D16B
:1021D00001F0AEFA06460746A7E700BFEEFBFFFF99
:1021E00000210D91069A089B1A4402F10109B9F1E8
:1021F000000F11924D4640F345810021172D616477
:102200000AD9012204235B0003F11400A8421146FD
:1022100002F10102F7D96164204601F059FA0E2D4E
:102220000B9020643FF669AD002E3FF466AD089E2A
:10223000002ECDE914AB40F32082A84B06F00F022C
:1022400003EBC2033511D3E90067EB0640F1DB81F4
:10225000A34B50465946D3E9082302F0BDFECDE911
:10226000120105F00F054FF003088DB1DFF870A2E1
:1022700030463946EE0705D5DAE9002302F082FD43
:1022800008F101086D100AF1080AF3D106460F465D
:10229000DDE9120132463B4602F09EFE82468B4645
:1022A000109E46B15046594600228E4B02F0DCFF8C
:1022B000002840F0BD82404602F0FEFC52465B46DC
:1022C00002F060FD0022884B02F0AAFB0646A1F155
:1022D0005077B9F1000F00F0688108991991C8464C
:1022E0000D9A002A00F028827C4B804903EBC8033A
:1022F00053E90223002002F06FFE32463B4602F013
:102300008DFBCDE912015946504602F0D5FF054636
:1023100002F0D2FC02460B465046594602F07EFBC4
:1023200030350B9ECDE90001EDB23570DDE91201CB
:10233000DDE9002306F1010B02F0B4FF002840F0B4
:10234000BF82DDE900230020664902F067FB0246F8
:102350000B46DDE9120102F0A5FF002840F0B6822D
:10236000B8F1010F40F38581B044CDF85890A246F2
:10237000C146DDE90067DDE912450DE0002059495D
:1023800002F04CFB22462B4602F06EFF002840F084
:102390009B82CB4500F06A81204629460022544B9F
:1023A00002F0F0FC0022524B04460D4630463946FE
:1023B00002F0E8FC0F46064602F07EFF804602F07F
:1023C0007BFC02460B463046394602F027FB08F1FB
:1023D00030085FFA88F822462B460BF8018B064638
:1023E0000F4602F041FF32463B460028C6D0199EF8
:1023F0000896544641E500220D92069B002B3DDDD8
:102400001D4611939946F8E601230D93F5E7B9F1BE
:10241000000F3FF785AC40F0E0800022354BDDE94E
:10242000040102F0AFFC52465B4602F031FFC846A1
:102430004E46002800F09180069BDDF82CB0DB436F
:1024400008934146204601F069F9002E7FF40EAE54
:1024500013E50C99204601F0ADFA0C906FE5189E3B
:10246000002E00F0CA8103F233430E9F0A9D2EE531
:102470000146204601F052F9012285E60125119519
:10248000A946069500216164C6E60C98414601F014
:102490003DFB0028BFF697ADDDF820E00C990EF16A
:1024A000FF3E20460A220023CDF820E001F040F94B
:1024B0000D990C90002940F02082DDF8449082E5CF
:1024C000D8F8103008EB8303186901F07DF9C0F1EA
:1024D00020004CE50B98FFF735BB00BFD059000832
:1024E000985A00080000F03F00001C400000E03F48
:1024F0000000244000001440BAF1000F7FF431AD19
:10250000CBF31303002B40F07F812BF000473F0DEE
:102510003F05002F3FF426AD0A9BDDF81CE0013398
:102520000EF1010E0A93CDF81CE001271AE5049A7A
:10253000022A7FF74CADB9F1000F7FF47DAF414621
:102540004B460522204601F0F3F8804641460C98A0
:1025500001F0DCFA00287FF76FAFDDF820E00B997F
:1025600031230EF1010ECDF820E00B7001F1010BCB
:1025700067E7089ADDF82CE03123013208928EF8E3
:10258000003065E5A346069C77E4404602F094FBE4
:1025900002460B465046594602F0F4FB00229E4B81
:1025A00002F03EFA0646A1F1507750465946002205
:1025B0009A4B02F033FA32463B4682468B4602F093
:1025C00071FE002840F0B480324607F100435046C7
:1025D000594602F049FE00284BD04FF0000846460D
:1025E0002AE70C990E9A204601F0E4F90C90A6E433
:1025F00001210D91F6E50E9E0E97BB1B0F9E1E440A
:102600000F9600275DE49DED147B4FF002088DEDE1
:10261000127B2AE6002ACDF83090D94611DD0C99BC
:102620000122204601F014FA41460C9001F06EFAA6
:10263000002840F35B81BAF1390F00F0238109F1E2
:10264000310A3546079E86F800A006F1010B3E468A
:10265000FEE403D11AF0010F7FF4EAAC5B469B461F
:10266000013B1BF8012C302AF9D0F1E4DDF8589039
:102670005446DDE914ABFFF740BB089E7542002DC0
:1026800000F0C580664B05F00F0203EBC203D3E9EF
:102690000023DDE9140102F075FB2D1182468B4603
:1026A00000F036815F4E4FF00208EA0705D5D6E903
:1026B000002302F067FB08F101086D1006F108061F
:1026C000F3D182468B46EBE5089E013608960B9EB9
:1026D0003022327031221A70FFF7CFBB716820466A
:1026E00000F0F6FF33699A1C0546920006F10C01D2
:1026F0000C3000F005FF20462946012201F0A8F920
:102700000746FDE4BAF1390FCDF8309000F0BA80F9
:10271000DDF81CE00AF1010335468EF800300EF1B9
:10272000010B3E4694E43546CDF830903E4673E4C6
:102730004FF00008464610E7394908F1FF3E01EB2B
:10274000CE0132463B46D1E90001CDF848E002F027
:1027500019FBCDE916015946504602F0ADFD05467C
:1027600002F0AAFA02460B465046594602F056F9C4
:102770000F460B993035B8F1010F06460D7001F187
:10278000010B21D00B994B1E0D4603EB080A304676
:1027900039460022244B02F0F5FA0F46064602F0B5
:1027A0008BFD804602F088FA08F1300802460B469D
:1027B0003046394602F032F905F8018F5545E8D127
:1027C000129A06460F4693440022184BDDE9160183
:1027D00002F026F932463B4602F046FD00285BD067
:1027E000199E08961BF8015C0B9AFFF73FBB0A9EE7
:1027F0000023C9EB0605FFF76ABB1A9B0E9F0A9DD3
:10280000C3F13603FFF763BB5746FFF7ABBBDDE908
:1028100014AB4FF0020843E500001C4000001440D8
:10282000D0590008985A0008000024400000E03FFA
:10283000B9F1000F3FF4A9AE119E002E7FF719AF3A
:102840000022384B5046594602F09CFA824608F165
:1028500001008B4602F030FA02460B4650465946BC
:1028600002F090FA0022304B02F0DAF8DDF820E0B6
:10287000DDF844800EF1FF3E0646CDF864E0A1F19C
:1028800050772DE5079B0B99392235461A703E4645
:1028900003F1010BFFF7D6BBDDE916230020234926
:1028A00002F0BCF832463B4602F0FCFC00283FF444
:1028B000E0AE5B469B46013B1BF8012C302AF9D069
:1028C000199E0896FFF7D9BA45465446199E0896B0
:1028D0000B9AFFF7CBBABAF1390FCDF83090D94641
:1028E000D0D0069B002B3FF7AAAEAAE67FF4A9AE94
:1028F0001AF0010F3FF4A5AE9DE6314620460A22AC
:102900000023DDF8449000F013FF0646FFF75BBBA1
:102910004FF00208C4E43FF440ABC3F13C03FFF7BF
:10292000D4BB00BF0000244000001C400000E03F7A
:102930008B899AB22DE9F0410D46110780463CD4AF
:102940006A6843F40063002AAB8159DDAC6A002C4D
:102950004BD09BB203F48052002192B2D8F80060B1
:10296000C8F80010002A4FD02A6D5F0705D56968A6
:102970002B6B521A0BB1EB6BD21A4046E96900235C
:10298000A047441C4AD0AA892B692B6022F400631B
:102990009BB200226A60DA04AB814CD4296BC8F880
:1029A000006011B305F14003994202D0404600F0A7
:1029B00051F900202863BDE8F0812E69AEB12C6882
:1029C0002E6091070CBF6B690023A41BAB600AE06B
:1029D000324623466F6AE9694046B8470028C0EB93
:1029E0000404064404DD002CF2DC0020BDE8F08184
:1029F000AB8943F04003AB814FF0FF30BDE8F0817D
:102A0000EA6B002AA2DCF0E701234046E969A0470F
:102A1000431C02461ED0AB89AC6AA6E7D8F800304A
:102A20005BB9A9896B6021F400639BB22A69AB8111
:102A3000DB042A60B2D52865B0E71D2B01D0162B28
:102A400019D1AA892B692B6022F400620023AA8184
:102A50006B60A3E7D8F80030002BDCD01D2B07D02B
:102A6000162B05D0AB8943F04003AB81BDE8F08164
:102A7000C8F80060B9E7AB8943F04003AB81BDE81B
:102A8000F08100BF10B5044682B008B1836B53B12A
:102A9000B1F90C0008B902B010BD204602B0BDE883
:102AA0001040FFF745BF019100F008F80199EFE7EA
:102AB000014900F09DB900BFF53F00082DE9F04F36
:102AC000846B83B00746002C65D145683348F863B2
:102AD0000423032107F53B72C7F8E412C7F8E82284
:102AE000C7F8E04205F15C00AB812C606C60AC6023
:102AF0006C66EC812C616C61AC612146082200F0AF
:102B000099FDBE68DFF898B0DFF898A0DFF89890DC
:102B1000DFF89880ED6101230922C5F820B0C5F8DF
:102B200024A0C5F82890C5F82C802146F381B281F5
:102B300034607460B460746634617461B461082296
:102B400006F15C00019300F075FDFD68F66112204E
:102B50000222C6F820B0C6F824A0C6F82890C6F80D
:102B60002C802146A881EA812C606C60AC606C6688
:102B70002C616C61AC6105F15C00082200F05AFD2B
:102B8000019BED61C5F820B0C5F824A0C5F82890D8
:102B9000C5F82C80BB6303B0BDE8F08FB12A0008F4
:102BA000553D0008793D0008B13D0008D13D0008C1
:102BB000704700BF704700BFF8B5234D0F4604466D
:102BC00000F082FDAB685E6826F00306F11B01F69B
:102BD000EF7121F47F6121F00F01A1F58057B7F566
:102BE000805F07DB2046002101F0A2F8AB68334488
:102BF000984204D0204600F069FD0020F8BD204630
:102C0000794201F095F801300DD0104BAA6819688F
:102C1000F61B46F001062046C91B5660196000F0FD
:102C200055FD0120F8BD2046002101F081F8AB6878
:102C3000C21A0F2ADEDD064D04492D6842F001025A
:102C4000401B5A600860D5E788040020A8080020CF
:102C5000940800202DE9F0410D460646002955D084
:102C600000F032FD55F8041CDFF874C121F00103B7
:102C7000A5F10804E218DCF808005768904227F034
:102C8000030769D011F00101576032D00021D0193B
:102C90004068C00706D43B44906800294ED0D268F3
:102CA000C260906043F001026260E350E1B9B3F5A5
:102CB000007F2DD35A0A042A6AD898093830410077
:102CC0000CEB810C4649DCF80820624566D051685F
:102CD00021F003018B4202D292689445F7D1D36868
:102CE000E360A2609C60D4603046BDE8F04100F033
:102CF000EDBC55F8085C641B0CF10808A068404561
:102D00002B4443D0E568C560A860C0E7BDE8F0810A
:102D1000DB080CEBC3020125DCF804009168A1601C
:102D20009B1005FA03F31843E260CCF804009460AA
:102D30003046CC60BDE8F04100F0C8BC294DA84247
:102D4000ADD143F00102CCF81440CCF81040E06063
:102D5000A0606260E350C7E71F44CB0707D455F873
:102D6000083CE41A1F44A268E368D3609A601E4BD3
:102D70001B6847F001029F426260CCF80840B3D361
:102D80001A4B30461968FFF717FFADE701217EE7C0
:102D9000142A0CD802F15B00410091E74B688010C7
:102DA000012505FA00F003434B60134698E7542AC7
:102DB00003D8180B6E30410082E7B2F5AA7F03D822
:102DC000D80B773041007BE740F254518A4203D858
:102DD000980C7C30410073E7FC217E2070E700BF37
:102DE000880400209004002090080020A4080020FF
:102DF0002DE9F04110F5387788461AD000267D6815
:102E0000BC68013D0FD4A389012B05F1FF3506D91C
:102E1000B4F90E300133204601D0C04706436B1C85
:102E200004F16804EFD13F68002FE8D13046BDE8D7
:102E3000F0813E463046BDE8F08100BF0048704753
:102E400064040020014B1868704700BF8404002010
:102E5000004870472C040020F0B58B899AB2960781
:102E600091B00C46054637D4B1F90E10002917DB96
:102E700001AA01F025F9002810DB029B03F470433E
:102E8000B3F500514F424F41B3F5004F2CD0A38909
:102E900043F40063A3814FF480660BE0A3899AB2E8
:102EA00012F0800F43F40063A38114BF40264FF457
:102EB000806600272846314600F03EF8A3890028A6
:102EC00029D01B4AEA6343F08003A381206020617C
:102ED0006661A7B911B0F0BD01F1430301220B6097
:102EE0000B614A6111B0F0BD124AA36A9342CED180
:102EF000A3894FF480663343A381E664DAE728466A
:102F0000B4F90E1001F07CFA0028E3D0A38943F055
:102F10000103A381DEE79A05DCD404F1430243F008
:102F200002030121A381226022616161D2E700BF17
:102F3000B12A0008B13D00082DE9F04F01F10B0561
:102F4000162D83B0064627D935F0070527D4A942A8
:102F500025D8304600F0B8FBB5F5FC7F26D2C14F2E
:102F60004FEAD50C07EBCC03DC689C4200F0D28121
:102F70006368E268A16823F00303234430465D6878
:102F8000CA6045F0010591605D6000F09FFB083468
:102F9000204603B0BDE8F08F1025A942D9D90024FE
:102FA0000C232046336003B0BDE8F08F5FEA552C58
:102FB00000F08A80BCF1040F00F260814FEA951C9A
:102FC0000CF1380C4FEA4C01A64F07EB8101CC689D
:102FD000A14205D10CE0002B7ADAE468A14207D0C7
:102FE000626822F00302531B0F2BF4DD0CF1FF3C4F
:102FF0000CF1010C9B4B3C6903F1080E744500F089
:103000007E81616821F003014A1B0F2A00F364816D
:10301000002AC3F814E0C3F810E06ADAB1F5007FC3
:1030200080F03A81C90803EBC1004FEAA1085A6851
:103030008168A1604FF0010909FA08F848EA020224
:10304000E0605A608460CC604FEAAC030120984095
:1030500090425BD8024206D12CF0030C40000242A1
:103060000CF1040CFAD007EBCC084446E146E368C7
:103070009C4207D145E1002A80F25681DB689C42E0
:1030800000F03F81596821F003014A1B0F2AF2DD4D
:103090001C46D3F80CC054F8088F591945F00109A3
:1030A00042F00105C3F804903046C8F80CC0CCF8D3
:1030B000088079613961C1F80CE0C1F808E04D6021
:1030C0008A5000F003FB63E77E214FF03F0C7BE763
:1030D0002244E3685068A16840F00105CB603046A7
:1030E0009960556000F0F2FA0834204603B0BDE85C
:1030F000F08F214430464B6843F001034B6000F0F1
:10310000E5FA0834204603B0BDE8F08FBC68636878
:1031100023F00309A94504D3C5EB09030F2B00F3E2
:103120009180514B514A19681368013305EB010A2C
:1031300004EB090B00F061810AF5805A0AF10F0ACD
:103140002AF47F6A2AF00F0A30465146019200F0B5
:10315000EFFDB0F1FF3F8046019A00F0008183450A
:1031600000F2FA80DFF810C1DCF80030C3455344A8
:10317000CCF8003000F04A8112683C4901321BBF94
:10318000CBEB080B5B44C1F80080CCF8003018F0A2
:10319000070300F01381C3F10802C3F58053904484
:1031A0000833C244CAF30B0ACAEB030A514630463D
:1031B000CDF804C000F0BCFD431CDDF804C000F0F5
:1031C0003581C8EB0002524442F00102DCF80030C5
:1031D000C7F808805344BC42C8F80420CCF800303B
:1031E000DFF894A015D0B9F10F0F40F2EA806168C2
:1031F000A9F10C0222F0070201F0010EA11805202E
:1032000042EA0E0E0F2AC4F804E04860886000F21B
:103210001181174ABC6811688B4288BF1360154A38
:1032200011688B4288BF1360626822F003029542E6
:10323000C5EB020301D80F2B04DC304600F046FA40
:103240000024A5E6621943F0010345F0010565601D
:103250003046BA60536000F039FA0834204603B0B3
:10326000BDE8F08F88040020A40800209408002006
:10327000A00800209C080020A8080020BCF1140F22
:1032800061D9BCF1540F00F28F804FEA153C0CF16C
:103290006E0C4FEA4C0197E64B0A042B58D9142BBD
:1032A00000F2AE8003F15B02500007EB8000DFF814
:1032B000BC818368834200F08A805A6822F003024E
:1032C000914202D29B689842F7D1D9687A68E1604E
:1032D000A3608C60DC60B7E6611942F0010745F03D
:1032E00001056560304659611961C1F80CE0C1F80B
:1032F00008E04F608A50083400F0E8F948E65A6860
:10330000A2E609F1010919F0030F04F108047FF4A2
:10331000AEAE2DE004F108036469A34208BF0CF1CE
:10332000020C3FF467AE23E619441C464868DB688C
:1033300054F8082F40F001054D603046D3609A6084
:1033400000F0C4F924E60CF15B0C4FEA4C013BE6BB
:103350008A0938325000A8E7BC423FF403AFBC688A
:10336000626822F0030262E7D8F8008098457BD1BA
:103370001CF0030FA8F108030CF1FF3CF4D17B68AB
:1033800023EA00037B60400098423FF6BFAE00286E
:103390003FF4BCAE0342CC467FF465AE400003422E
:1033A0000CF1040CFAD05EE6BCF5AA7F1AD84FEAFD
:1033B000D53C0CF1770C4FEA4C0105E64FF48053F5
:1033C000EFE60123C8F80430444600222FE79110AD
:1033D0000120D8F8042000FA01F10A43C8F80420BB
:1033E000194674E740F254539C451BD84FEA954C5C
:1033F0000CF17C0C4FEA4C01E6E50AF1100AA3E659
:10340000542B1FD80A0B6E3250004EE7CBF30B0142
:1034100000297FF4B1AE0AEB0901BA6841F001015D
:103420005160F6E6FC214FF07E0CCDE501224FF015
:10343000000ACBE604F108013046FFF70BFCDAF88E
:103440000030E6E6B3F5AA7F03D8CA0B7732500006
:103450002BE740F25452934203D88A0C7C3250003E
:1034600023E7FC207E2220E77B688CE7880400208D
:10347000830770B4C9B23FD0541E2AB303788B427D
:1034800023D0431C04E0FCB104788C421DD01446C8
:1034900013F0030F184604F1FF3203F10103F2D1D8
:1034A000032C14D8651E4CB303788B420DD0421CFC
:1034B000002302E004788C4207D0AB42104603F1AF
:1034C000010302F10102F5D1002070BC704741EA0E
:1034D0000126034646EA064618460433026872404F
:1034E000A2F1013525EA020212F0803FDAD1043C54
:1034F000032C1846F0D8D5E71446D1E72046E4E778
:10350000844641EA000313F003036DD1403A41D3EE
:1035100051F8043B40F8043B51F8043B40F8043BAD
:1035200051F8043B40F8043B51F8043B40F8043B9D
:1035300051F8043B40F8043B51F8043B40F8043B8D
:1035400051F8043B40F8043B51F8043B40F8043B7D
:1035500051F8043B40F8043B51F8043B40F8043B6D
:1035600051F8043B40F8043B51F8043B40F8043B5D
:1035700051F8043B40F8043B51F8043B40F8043B4D
:1035800051F8043B40F8043B51F8043B40F8043B3D
:10359000403ABDD2303211D351F8043B40F8043BDD
:1035A00051F8043B40F8043B51F8043B40F8043B1D
:1035B00051F8043B40F8043B103AEDD20C3205D3ED
:1035C00051F8043B40F8043B043AF9D2043208D0E5
:1035D000D2071CBF11F8013B00F8013B01D30B8857
:1035E00003806046704700BF082A13D38B078DD035
:1035F00010F003038AD0C3F10403D21ADB071CBF07
:1036000011F8013B00F8013B80D331F8023B20F870
:10361000023B7BE7043AD9D3013A11F8013B00F8A9
:10362000013BF9D20B7803704B7843708B78837031
:1036300060467047F0B4840743D0541E002A3ED041
:10364000CDB2034603E0621E002C38D0144603F8C6
:10365000015B9A07F7D1032C2AD9CDB245EA05259B
:103660000F2C45EA054515D9A4F110073F0903F1D0
:10367000100606EB07161A46156055609560D56072
:103680001032B242F8D104F00F040137032C03EBDF
:1036900007130DD91E462246043A032A46F8045B56
:1036A000FAD8221F22F003020432134404F0030468
:1036B0002CB1C9B21C4403F8011BA342FBD1F0BCDE
:1036C000704714460346C6E7704700BF704700BF07
:1036D000C26C70B505460C464AB152F8240080B160
:1036E000016842F8241000220261C26070BD2122EC
:1036F000042100F0FDFBE86402460028EDD1002023
:1037000070BD012101FA04F6721D2846920000F0F6
:10371000EFFB0028F3D044608660E4E731B1C36C6E
:103720004A6853F82200086043F82210704700BF2F
:103730002DE9F047D1F8108082B08946824601F128
:10374000140500242F68BEB23F0C02FB063602FBB4
:1037500007F303EB16430134B6B206EB0346A0456C
:1037600045F8046B4FEA1343ECDC53B1D9F8082059
:1037700090450ADA09EB880108F101024B61C9F8AA
:103780001020484602B0BDE8F087D9F80410019334
:1037900001315046FFF79CFFD9F81020023209F1A1
:1037A0000C01044692000C30FFF7AAFEDAF84C2018
:1037B000D9F80410019B52F82100C9F8000042F822
:1037C0002190A146D6E700BF030C1B04B3B9000447
:1037D000102310F07F4F04BF0002083310F0704F29
:1037E00004BF0001043310F0404F04BF80000233D7
:1037F000002807DB420003D4202070470023E8E7BD
:10380000581C704718467047036813F0070207D02A
:10381000D90720D49A0720D49B0803600220704760
:1038200099B209B91B0C102213F0FF0F04BF1B0A39
:103830000832190704BF1B090432990704BF9B080B
:103840000232D90704D45B0801D12020704701322D
:10385000036010467047002070475B08036001203A
:10386000704700BF10B50C460121FFF731FF012260
:103870004461026110BD00BF2DE9F04F0D69D2F81F
:1038800010904D4585B00C46924604DA2A465446BF
:103890004D468A469146A368616805EB09079F4239
:1038A000C8BF0131FFF714FF00F1140606EB8708CB
:1038B0004645019005D23346002043F8040B984555
:1038C000FBD80AF1140C0CEB89091434CC45009494
:1038D00004EB85055BD2CDF808800397C8465CF8F9
:1038E000043B9CB224B3009A33464FF0000900E039
:1038F0000B4652F8047B19681FFA87FB1FFA81FAFE
:10390000380C090C04FB0BA7B94404FB001000EBB6
:10391000194019461FFA89F949EA004795424FEACA
:10392000104941F8047BE3D8C3F804905CF8043CE8
:103930005FEA134924D0D6F800A0009B50463146D8
:103940004FF0000B00E011461A88000C09FB020042
:1039500083441FFA8AFA0A464AEA0B4042F8040BEB
:1039600053F8047B48684FEA174A84B209FB0A4AB5
:103970000AEB1B4A9D424FEA1A4BE4D8C1F804A057
:10398000E04506F10406AAD8DDF80880039F002F61
:103990000ADD58F8043CA8F104081BB104E058F80B
:1039A000043D0BB9013FFAD1019B18461F6105B0D8
:1039B000BDE8F08F12F003032DE9F04114460746ED
:1039C0000E462CD1A4101CD0BD6C002D30D04FF071
:1039D000000804E0641014D02868A8B10546E30785
:1039E000F8D5384631462A46FFF746FFAEB1726831
:1039F000FB6C641053F82210316043F822600646D5
:103A0000EAD13046BDE8F081384629462A46FFF71C
:103A100033FF2860C0F80080E0E70646DAE75D1E65
:103A20000A4A002352F82520FFF782FE0646C9E71E
:103A300001213846FFF74CFE40F27121012200239C
:103A4000416102610546B8640360C0E7C05A0008DE
:103A50002DE9F84F93460A698B684FEA6B1A0AEB17
:103A6000020909F101069E420F468046496804DDBD
:103A70005B009E4201F10101FADC4046FFF728FE9F
:103A8000BAF1000F00F1140409DD00231A4625469F
:103A90000133534545F8042BFAD104EB83043A690A
:103AA00007F114031BF01F0B03EB820C21D0CBF1A9
:103AB000200A002200E02C461968254601FA0BF185
:103AC0000A4345F8042B53F8042B634522FA0AF203
:103AD000F1D362600AB109F10206D8F84C307A6875
:103AE000013E53F822100661396043F82270BDE8A8
:103AF000F88F53F8042B44F8042B9C45EDD953F868
:103B0000042B44F8042B9C45F3D8E6E702690B69C3
:103B1000D21A10B415D19B00143014311944034447
:103B200001E0984211D253F8042D51F8044DA242FD
:103B3000F7D0944294BF01204FF0FF305DF8044B62
:103B4000704710465DF8044B704700205DF8044B49
:103B5000704700BF2DE9F0470D4604461146284640
:103B60001646FFF7D3FF071E55D04EDB4FF0000877
:103B700069682046FFF7ACFD2F693269C0F80C80F8
:103B80001435143600F1140305EB870C06EB82089C
:103B9000002156F8042B55F8044B1FFA82F911FA4C
:103BA00084FA110CC1EB1441C9EB0A0201EB22416A
:103BB00092B242EA0142B04543F8042B4FEA214158
:103BC0002C46E6D8AC45984615D954F8046B11FA42
:103BD00086F1360C06EB214689B241EA0642A4453D
:103BE00043F8042B4FEA2641EFD8EB43634423F01C
:103BF000030304334344043B22B953F8042D013F2B
:103C0000002AFAD00761BDE8F0872B464FF0010883
:103C100035461E46ACE720463946FFF759FD0123DD
:103C200047610361BDE8F0872DE9F043894683B021
:103C3000012155EC104B9046FFF74AFDC5F30A579A
:103C40000646C5F313030FB143F48013019314B375
:103C500002A840F8084D6846FFF7D6FD002831D18C
:103C60009DE80C007261002B0CBF01240224B3619B
:103C70003461D7B906EB8403A0F23240C9F80000E2
:103C80001869FFF7A1FDC0EB4410C8F800003046EA
:103C900003B0BDE8F08301A8FFF7B6FD0124019B46
:103CA000736120303461002FE4D0A7F2334707441A
:103CB000C0F13500C9F80070C8F80000304603B004
:103CC000BDE8F0839DE80C00C0F1200103FA01F18A
:103CD0000A43C34001937261C5E700BF53EC102B48
:103CE00033F0004110B408D00F48A1F5801484428D
:103CF0000AD804205DF8044B7047002A0CBF02204C
:103D000003205DF8044B7047B1F5801F01D20320FA
:103D1000F7E70648814201D00020F2E7D2F1010026
:103D200038BF0020EDE700BFFFFFDF7F0000F07F1E
:103D300038B5074C002305460846236001F0E2FD34
:103D4000431C00D038BD2368002BFBD02B6038BD4E
:103D5000D408002010B50C46B1F90E1000F0D6FBC7
:103D6000002803DB236D0344236510BDA38923F4DE
:103D70008053A38110BD00BF2DE9F0410C46898915
:103D80001D46CB051646074606D5B4F90E1000228F
:103D9000022300F047FBA18921F48051A18138461C
:103DA000B4F90E1032462B46BDE8F04100F08CB855
:103DB00010B50C46B1F90E1000F034FBA389421C7B
:103DC0000EBF23F4805343F480532065A38110BDBC
:103DD000B1F90E1000F0BCB820F0030110F00300A0
:103DE000C0F1000051F8043B00F1040C4FEACC0C88
:103DF0006FF000021CBF22FA0CF213434FF0010CCB
:103E00004CEA0C2C4CEA0C4CA3EB0C0222EA030209
:103E100012EACC1204BF51F8043B0430F4D013F082
:103E2000FF0F1FBF013013F47F4F013013F47F0FDA
:103E300018BF0130704700BF4B6E2DE9F0479C045E
:103E40000E46804691462AD59368126802F1080A08
:103E50001BB31AE9A000BF0817D0043D002401E0FD
:103E6000A74210D0404655F8041F324600F0CAF869
:103E7000431C04F10104F3D10023C9F80830C9F848
:103E80000430BDE8F087D9F80830A3EB8703C9F800
:103E900008300AF1080A002BDBD10020ECE700F023
:103EA00023F90023C9F80830C9F80430BDE8F087C9
:103EB000936810B41BB15DF8044BFFF7BDBF184603
:103EC00053605DF8044B704770B5084C06460025FA
:103ED000084611461A46256001F02EFD431C00D00D
:103EE00070BD2368002BFBD0336070BDD408002068
:103EF00010B502FB01F1FFF71FF8044668B150F856
:103F0000042C22F00302043A242A18D8132A06D8D3
:103F1000034600221A605A609A60204610BD0023B2
:103F20001B2A036043600FD9242A8360C36005BF46
:103F30000361436100F1100300F11803E9E7002178
:103F4000FFF778FB204610BD00F10803E1E700BF52
:103F500038B5074C002305460846236001F0AAFC4B
:103F6000431C00D038BD2368002BFBD02B6038BD2C
:103F7000D408002070B50C46054631B110B1836BF2
:103F8000002B2FD0B4F90C300BB9002070BD28469F
:103F90002146FEF777FDE36A064633B12846E1691C
:103FA00098470028B8BF4FF0FF36A3891B061CD4E2
:103FB000216B41B104F14003994202D02846FEF73B
:103FC00049FE00232363616C21B12846FEF742FEBF
:103FD00000236364FEF7ECFD0023A381FEF7EAFDF6
:103FE000304670BDFEF76AFDCCE728462169FEF732
:103FF00031FEDDE7024B01461868FFF7BBBF00BF8B
:10400000280400202DE9F04193890F46990482B0DD
:104010001446804606D4526E43F4005342F40052D4
:10402000A3816266FEF70EFF01283DD03A46404666
:1040300001A904F15C0300F0B7FC421C06462CD039
:10404000002839D09DF80410002509E02368197074
:104050002368013323600135B5422DD201ABE95C01
:10406000A368013B002BA360F0DAA269934205DB51
:1040700023681970236819780A29EAD14046224634
:1040800000F03EFCB0F1FF33584258410028E2D026
:104090004FF0FF3002B0BDE8F081A38943F0400348
:1040A000A38102B0BDE8F0817B1EFE2BBED8F9B221
:1040B00006468DF80410C7E7384602B0BDE8F08127
:1040C00038B5084C0023054608461146236001F028
:1040D000F9FB431C00D038BD2368002BFBD02B60BC
:1040E00038BD00BFD40800202DE9F04F936883B09D
:1040F000164681460C462BB38B89190726D52269B3
:1041000022B303F0020292B23568002A2CD04FF09D
:10411000000ADFF8E8B2D046D84534BF43465B46D4
:1041200052464846B8F1000F4FD0E169676AB84778
:10413000002856DDB3681B1A8244C0EB0808B36040
:10414000002BE9D1002003B0BDE8F08F484621469E
:10415000FDF7C6FB002840F04881A389356803F0CD
:10416000020292B2002AD2D113F0010A42D1D04603
:10417000B8F1000F23D09A05A76876D5B845C0F0EE
:10418000A48013F4906F40F0B2802068BB46514683
:104190005A4600F05BF9A2682168D21B01EB0B03C1
:1041A000A26023604246B3689B1A9244C2EB08089F
:1041B000B360002BC6D0A389B8F1000FDBD1D5F8CE
:1041C00000A0D5F804800835D2E7D5F800A0D5F8CE
:1041D00004800835A0E748462146FEF753FC002836
:1041E00059D0A38943F040034FF0FF30A38103B0BF
:1041F000BDE8F08F9246019293469046B8F1000FC9
:104200002BD0019F002F64D020682169D4F808C00A
:104210006269C24534BF5346434688421F4603D9AC
:104220009444634500F3AE80934236DB1346676ADD
:10423000E16948465A46B847071ED2DDBAEB070A7D
:104240003AD0B368DB1BBB44C7EB0808B360002B54
:104250003FF478AFB8F1000FD3D10027D5F800B004
:10426000D5F8048001970835C8E72068236998428B
:1042700002D86369984572D2B84538BF47463A4676
:10428000514600F0E3F8A3682268DB1B3A44A360C0
:104290002260002B9FD03A4685E71A465946009384
:1042A00000F0D4F8009BA1682268C91ABAEB070A8B
:1042B0001344A1602360C4D148462146FEF7E2FBC7
:1042C00000288ED1CDF804A0BBE720684746C3463E
:1042D0005DE758460A214246FFF7CAF800287FD01A
:1042E00000F1010A0127CBEB0A0A01978CE722684B
:1042F00021696769C1EB020C07EB47070CF101026A
:1043000007EBD77742447F10974234BF17463A46AF
:104310005B054FD511464846CDF800C0FEF70CFEB0
:10432000DDF800C08346002862D062462169CDF8DE
:1043300000C0FFF7E5F8A289DDF800C022F4906222
:1043400042F08002A2810BEB0C00CCEB0702C4F818
:1043500010B067612060A2604746C34617E76FF060
:104360000042904538BF424692FBF3F202FB03F352
:10437000676AE16948465246B84700287FF731AF7F
:10438000024610E762465946CDF800C000F05EF8DC
:10439000DDF800C023686344236048462146CDF819
:1043A00000C0FEF76FFBDDF800C000287FF419AFF6
:1043B000674643E74846CDF800C000F0BBF8DDF89B
:1043C00000C083460028BED148462169FEF742FC62
:1043D000A3890C2223F080039BB2C9F8002001E7D7
:1043E000012708F1010A01970EE74FF0FF30AAE616
:1043F0000C23C9F80030A389F4E600BF00FCFF7F5E
:1044000038B5074C002305460846236001F062FAE0
:10441000431C00D038BD2368002BFBD02B6038BD77
:10442000D408002070B5084C064600250846114601
:104430001A46256001F056FA431C00D070BD23686F
:10444000002BFBD0336070BDD40800208842F0B44C
:1044500010D98C18A0420DD28518531E42B12146A6
:104460002A4611F8014D02F8014D013B5C1CF8D1C0
:10447000F0BC70470F2A3FD940EA01039B073FD1A8
:10448000A2F110073F0900EB071610360C46034651
:1044900025681D6065685D60A5689D60E568DD60F4
:1044A0001033B34204F11004F2D17B1C02F00F0C64
:1044B0001B01BCF1030F1944034423D90E461D46CA
:1044C0006446043C56F8047B45F8047B032CF8D87A
:1044D000ACF1040424F00304043402F00302234486
:1044E0002144002AC4D01A4411F8014B03F8014BAF
:1044F0009342F9D1F0BC70470346002AF3D1B7E7E5
:104500000346F0E76246002AEDD1B1E770B5084CEA
:1045100006460025084611461A46256001F0EAF9CC
:10452000431C00D070BD2368002BFBD0336070BDEE
:10453000D40800202DE9F04F0C4683B09046814608
:10454000002900F0E280FFF7BFF808F10B0654F8ED
:10455000043C162E23F00305A4F108074BD81021C4
:104560000E46B0454CD88D4278DADFF890B3DBF8D0
:1045700008E07819864500F0CE80426822F0010CF0
:104580008444DCF804C01CF0010F7AD000221046ED
:10459000DB0700F1928054F8083CC3EB070ADAF815
:1045A000043023F003032B4488B3704500F0ED8002
:1045B00002EB030E8E452ADBC36882685746D36040
:1045C0009A6057F8081FDAF80C30CB602A1F242AAB
:1045D000996000F22681132A40F2B3802368CAF85A
:1045E00008306368CAF80C301B2A00F230810834A6
:1045F0000AF11003A6E026F00706002E3146B0DAD5
:104600000C230020C9F8003003B0BDE8F08F8B42C6
:1046100053DB5746DAF80C1057F8080F2A1F242AE4
:10462000C160886000F20981132A40F20481216888
:10463000CAF808106168CAF80C101B2A00F21C8125
:1046400008340AF110022168116061685160A168A4
:1046500091601D46DAF804303C465746AA1B0F2AE3
:1046600003F0010319D82B433D447B606B6843F092
:1046700001036B604846FFF729F8204603B0BDE808
:10468000F08F22F0030202EB050C8C4580DBC26840
:1046900081686546CA609160E0E7B91942F001009F
:1046A0001E430A447E604860536843F001030831AA
:1046B00053604846FEF7CEFADCE741464846FEF72F
:1046C0003BFC8046D0B154F8043C23F001023A444C
:1046D000A0F10801914200F09E802A1F242A50D8A0
:1046E000132A23D80346224611681960516859607D
:1046F00092689A6021464846FEF7ACFA4846FEF7B3
:10470000E5FF404603B0BDE8F08F114603B0BDE8B9
:10471000F04FFEF711BCDEF8042022F0030250191E
:1047200006F1100C604519DA704631E72368036022
:10473000636843601B2A63D800F1080304F1080290
:10474000D2E73B4622681A6062685A60A2689A60A3
:104750003C467546DAF8043057467FE73744831BFA
:1047600043F00103CBF808707B6054F8043C03F07D
:1047700001031E43484644F8046CFEF7A7FF204699
:104780007CE72146FFF762FEB4E702EB030C06F17B
:1047900010029445FFF63BAF5746DAF80C3057F855
:1047A000081F2A1F242ACB60996000F28780132AF1
:1047B00078D92368CAF808306368CAF80C301B2A15
:1047C00000F2858008340AF1100322681A606268DA
:1047D0005A60A2689A600AEB0603C6EB0C0242F02C
:1047E0000102CBF808305A60DAF8043003F0010314
:1047F0001E434846CAF80460FEF768FF38463DE7A6
:10480000A3688360E368C360242A2CD000F11003FE
:1048100004F1100268E750F8042C22F0030215445A
:104820001CE72146384675463C46FFF70FFE5746C3
:10483000DAF8043012E73A4605E7214638461D46C5
:104840003C46FFF703FE5746DAF8043006E7A36854
:10485000CAF81030E368CAF81430242A18D010348B
:104860000AF118036EE7236903616369436104F188
:10487000180200F1180337E7A168CAF81010E168C0
:10488000CAF81410242A0FD010340AF11802DAE6FC
:104890002369CAF818306369CAF81C3018340AF161
:1048A00020034FE73B4690E72269CAF81820626967
:1048B000CAF81C2018340AF12002C4E62146384602
:1048C000CDF804C0FFF7C2FDDDF804C083E7A3689C
:1048D000CAF81030E368CAF81430242A03D0103420
:1048E0000AF1180371E72369CAF818306369CAF836
:1048F0001C3018340AF1200367E700BF8804002049
:10490000F8B50D461446074610B1836B002B48D00E
:10491000A289A369A36093B2180738D52669002E2F
:1049200035D09904EDB215D5236862699E1B964275
:104930001CDA0136A268591C013AA26021601D7080
:104940006369B3421AD0A389DB0701D50A2D15D0BC
:104950002846F8BD636E23F4005342F400526366A8
:104960002368A28162699E1B9642E2DB384621469B
:10497000FEF788F840B923680126DBE73846214670
:10498000FEF780F80028E3D04FF0FF30F8BD38463E
:104990002146FCF7A5FF0028F6D1A289266993B22B
:1049A000BFE7FEF78BF8B3E72DE9F0411E4686B06E
:1049B0000C46054617460F4B91B1D3F80080FEF721
:1049C0003DFA0096034621463A462846C047431C16
:1049D00003D100228A2332602B6006B0BDE8F0814B
:1049E0001F68FEF72BFA009603462246284603A9C5
:1049F000B847ECE79808002021B1FF2A04D80A70D4
:104A000001207047084670478A2303604FF0FF304B
:104A1000704700BF81F0004102E000BF83F0004317
:104A200030B54FEA41044FEA430594EA050F08BF49
:104A300090EA020F1FBF54EA000C55EA020C7FEA0D
:104A4000645C7FEA655C00F0E2804FEA5454D4EB8A
:104A50005555B8BF6D420CDD2C4480EA020281EA54
:104A6000030382EA000083EA010180EA020281EA8C
:104A70000303362D88BF30BD11F0004F4FEA0131DE
:104A80004FF4801C4CEA113102D0404261EB4101ED
:104A900013F0004F4FEA03334CEA133302D0524273
:104AA00063EB430394EA050F00F0A780A4F101042F
:104AB000D5F1200E0DDB02FA0EFC22FA05F2801869
:104AC00041F1000103FA0EF2801843FA05F359414F
:104AD0000EE0A5F120050EF1200E012A03FA0EFCCE
:104AE00028BF4CF0020C43FA05F3C01851EBE371F8
:104AF00001F0004507D54FF0000EDCF1000C7EEB15
:104B000000006EEB0101B1F5801F1BD3B1F5001F52
:104B10000CD349085FEA30004FEA3C0C04F1010471
:104B20004FEA445212F5800F80F09A80BCF1004F9A
:104B300008BF5FEA500C50F1000041EB045141EA1C
:104B4000050130BD5FEA4C0C404141EB010111F41D
:104B5000801FA4F10104E9D191F0000F04BF0146C8
:104B60000020B1FA81F308BF2033A3F10B03B3F1A6
:104B700020020CDA0C3208DD02F1140CC2F10C0236
:104B800001FA0CF021FA02F10CE002F11402D8BF94
:104B9000C2F1200C01FA02F120FA0CFCDCBF41EA60
:104BA0000C019040E41AA2BF01EB0451294330BD2F
:104BB0006FEA04041F3C1CDA0C340EDC04F114040C
:104BC000C4F1200220FA04F001FA02F340EA0300E3
:104BD00021FA04F345EA030130BDC4F10C04C4F129
:104BE000200220FA02F001FA04F340EA0300294609
:104BF00030BD21FA04F0294630BD94F0000F83F453
:104C0000801306BF81F480110134013D4EE77FEA35
:104C1000645C18BF7FEA655C29D094EA050F08BF81
:104C200090EA020F05D054EA000C04BF1946104662
:104C300030BD91EA030F1EBF0021002030BD5FEAA6
:104C4000545C05D14000494128BF41F0004130BDCE
:104C500014F580043CBF01F5801130BD01F0004522
:104C600045F0FE4141F470014FF0000030BD7FEA95
:104C7000645C1ABF194610467FEA655C1CBF0B4690
:104C8000024650EA013406BF52EA033591EA030FA7
:104C900041F4002130BD00BF90F0000F04BF00219F
:104CA000704730B54FF4806404F132044FF00005D2
:104CB0004FF0000150E700BF90F0000F04BF00214B
:104CC000704730B54FF4806404F1320410F00045B1
:104CD00048BF40424FF000013EE700BF42004FEAAC
:104CE000E2014FEA31014FEA02701FBF12F07F4329
:104CF00093F07F4F81F06051704792F0000F14BF26
:104D000093F07F4F704730B54FF4607401F0004569
:104D100021F0004120E700BF50EA010208BF7047C0
:104D200030B54FF000050AE050EA010208BF7047B5
:104D300030B511F0004502D5404261EB41014FF41E
:104D4000806404F132045FEA915C3FF4DCAE4FF022
:104D500003025FEADC0C18BF03325FEADC0C18BF09
:104D6000033202EBDC02C2F1200300FA03FC20FA5A
:104D700002F001FA03FE40EA0E0021FA02F11444A7
:104D8000C1E600BF70B54FF0FF0C4CF4E06C1CEABC
:104D900011541DBF1CEA135594EA0C0F95EA0C0F31
:104DA00000F0DEF82C4481EA030621EA4C5123EAA4
:104DB0004C5350EA013518BF52EA033541F48011D3
:104DC00043F4801338D0A0FB02CE4FF00005E1FB86
:104DD00002E506F00042E0FB03E54FF00006E1FBD0
:104DE00003569CF0000F18BF4EF0010EA4F1FF0413
:104DF000B6F5007F64F5407404D25FEA4E0E6D4153
:104E000046EB060642EAC62141EA55514FEAC52063
:104E100040EA5E504FEACE2EB4F1FD0C88BFBCF5DF
:104E2000E06F1ED8BEF1004F08BF5FEA500E50F190
:104E3000000041EB045170BD06F0004646EA010156
:104E400040EA020081EA0301B4EB5C04C2BFD4EB88
:104E50000C0541EA045170BD41F480114FF0000E81
:104E6000013C00F3AB8014F1360FDEBF002001F0EF
:104E7000004170BDC4F10004203C35DA0C341BDC69
:104E800004F11404C4F1200500FA05F320FA04F03B
:104E900001FA05F240EA020001F0004221F000416F
:104EA00010EBD37021FA04F642EB06015EEA430EE2
:104EB00008BF20EAD37070BDC4F10C04C4F1200512
:104EC00000FA04F320FA05F001FA04F240EA0200C5
:104ED00001F0004110EBD37041F100015EEA430E96
:104EE00008BF20EAD37070BDC4F1200500FA05F2B6
:104EF0004EEA020E20FA04F301FA05F243EA020335
:104F000021FA04F001F0004121FA04F220EA020043
:104F100000EBD3705EEA430E08BF20EAD37070BD89
:104F200094F0000F0FD101F00046400041EB010169
:104F300011F4801F08BF013CF7D041EA060195F04B
:104F4000000F18BF704703F00046520043EB030305
:104F500013F4801F08BF013DF7D043EA06037047F2
:104F600094EA0C0F0CEA135518BF95EA0C0F0CD0FD
:104F700050EA410618BF52EA4306D1D181EA030143
:104F800001F000414FF0000070BD50EA410606BF3D
:104F90001046194652EA430619D094EA0C0F02D182
:104FA00050EA013613D195EA0C0F05D152EA0336C7
:104FB0001CBF104619460AD181EA030101F00041E5
:104FC00041F0FE4141F470014FF0000070BD41F02E
:104FD000FE4141F4780170BD70B54FF0FF0C4CF408
:104FE000E06C1CEA11541DBF1CEA135594EA0C0F27
:104FF00095EA0C0F00F0A7F8A4EB050481EA030E74
:1050000052EA03354FEA013100F088804FEA03335A
:105010004FF0805545EA131343EA12634FEA022228
:1050200045EA111545EA10654FEA00260EF00041E9
:105030009D4208BF964244F1FD0404F5407402D23B
:105040005B084FEA3202B61A65EB03055B084FEACC
:1050500032024FF480104FF4002CB6EB020E75EBC9
:10506000030E22BFB61A754640EA0C005B084FEAF1
:105070003202B6EB020E75EB030E22BFB61A75466E
:1050800040EA5C005B084FEA3202B6EB020E75EBB9
:10509000030E22BFB61A754640EA9C005B084FEA31
:1050A0003202B6EB020E75EB030E22BFB61A75463E
:1050B00040EADC0055EA060E18D04FEA051545EA2D
:1050C00016754FEA06164FEAC30343EA52734FEAD6
:1050D000C2025FEA1C1CC0D111F4801F0BD141EA4F
:1050E00000014FF000004FF0004CB6E711F4801FB4
:1050F00004BF01430020B4F1FD0C88BFBCF5E06F94
:105100003FF6AFAEB5EB030C04BFB6EB020C5FEAA3
:10511000500C50F1000041EB045170BD0EF0004EF8
:105120004EEA113114EB5C04C2BFD4EB0C0541EA2A
:10513000045170BD41F480114FF0000E013C90E627
:1051400045EA060E8DE60CEA135594EA0C0F08BFEB
:1051500095EA0C0F3FF43BAF94EA0C0F0AD150EAEA
:1051600001347FF434AF95EA0C0F7FF425AF10467D
:1051700019462CE795EA0C0F06D152EA03353FF4A5
:10518000FDAE1046194622E750EA410618BF52EA22
:1051900043067FF4C5AE50EA41047FF40DAF52EAF6
:1051A00043057FF4EBAE12E74FF0FF3C06E000BF93
:1051B0004FF0010C02E000BF4FF0010C4DF804CDA0
:1051C0004FEA410C7FEA6C5C4FEA430C18BF7FEA60
:1051D0006C5C1BD001B050EA410C0CBF52EA430C8E
:1051E00091EA030F02BF90EA020F0020704710F10E
:1051F000000F91EA030F58BF994208BF90422CBF9D
:10520000D8176FEAE37040F0010070474FEA410C95
:105210007FEA6C5C02D150EA013C07D14FEA430CB3
:105220007FEA6C5CD6D152EA033CD3D05DF8040B24
:10523000704700BF8446104662468C461946634656
:1052400000E000BF01B5FFF7B7FF002848BF10F12D
:10525000000F01BD4DF808EDFFF7F4FF0CBF012072
:1052600000205DF808FB00BF4DF808EDFFF7EAFFEE
:1052700034BF012000205DF808FB00BF4DF808EDA9
:10528000FFF7E0FF94BF012000205DF808FB00BF9E
:105290004DF808EDFFF7CEFF94BF012000205DF828
:1052A00008FB00BF4DF808EDFFF7C4FF34BF012035
:1052B00000205DF808FB00BF4FEA410212F5001222
:1052C00015D211D56FF47873B3EB625212D94FEA4D
:1052D000C12343F0004343EA505311F0004F23FA37
:1052E00002F018BF404270474FF00000704750EA8C
:1052F000013005D111F0004008BF6FF00040704749
:105300004FF00000704700BF4BB942B9002908BFF9
:10531000002802D04FF0FF31084600F03BB882B0C1
:10532000EC462DE9005000F01DF8DDF804E002B075
:105330000CBC70472DE97043069E14461D468046FE
:10534000894600F029F804FB01F300FB0533A4FBB8
:1053500000451D44B8EB040469EB0505C6E90045AA
:10536000BDE870832DE97043069E14468046894649
:105370001D4600F05DF900FB05F504FB0153A0FBA1
:1053800004451D44B8EB040469EB0505C6E9004576
:10539000BDE87083704700BF00292DE9F00FC0F20F
:1053A0009F800024002BC0F29680154606460F46CB
:1053B000002B3ED18A4257D9B2FA82F34BB1C3F1E6
:1053C000200201FA03F720FA02F29D40174300FA87
:1053D00003F6290CB7FBF1F2330C01FB127CA8B2E7
:1053E00043EA0C4700FB02F3BB4209D97F1902F1E3
:1053F000FF3C80F00181BB4240F2FE80023A2F4424
:10540000FF1AB7FBF1F3B6B201FB137146EA014193
:1054100000FB03F0884208D9491903F1FF3780F0F7
:10542000ED80884240F2EA80023B43EA02420023D8
:1054300003E08B420AD900231A461046194614B1DC
:10544000404261EB4101BDE8F00F7047B3FA83F8C9
:10545000B8F1000F40F084808B4202D3824200F208
:10546000DE8000230122E8E712B90123B3FBF2F545
:10547000B5FA85F2002A39D17F1B280C1FFA85FC6A
:105480000123B7FBF0F1320C00FB117742EA07472A
:105490000CFB01F2BA4207D97F1901F1FF3802D2A1
:1054A000BA4200F2C1804146BF1AB7FBF0F2B6B271
:1054B00000FB127046EA00400CFB02FC844507D951
:1054C000401902F1FF3702D2844500F2AB803A4620
:1054D00042EA0142B1E7E443524263EB430364E72B
:1054E000404261EB41014FF0FF345BE79540C2F170
:1054F000200327FA03F1280C26FA03F39740B1FBA7
:10550000F0F81F433B0C00FB18111FFA85FC43EA1F
:1055100001410CFB08F38B4206FA02F608D949193F
:1055200008F1FF3279D28B4277D9A8F102082944D9
:10553000C91AB1FBF0F3BFB200FB131147EA0147F0
:105540000CFB03F2BA4207D97F1903F1FF3160D295
:10555000BA425ED9023B2F44BF1A43EA084390E7A0
:10556000C8F1200203FA08FC25FA02F343EA0C0C06
:105570004FEA1C4921FA02F301FA08F720FA02F275
:10558000B3FBF9F1174309FB11333A0C1FFA8CFBFB
:1055900042EA03430BFB01FA9A4505FA08F008D9E1
:1055A00013EB0C0301F1FF3235D29A4533D902399E
:1055B0006344CAEB0303B3FBF9F209FB1233BFB236
:1055C00047EA03470BFB02F9B94508D917EB0C076B
:1055D00002F1FF331BD2B94519D9023A674442EAB6
:1055E0000145A5FB0001C9EB07078F424FF00003FF
:1055F0000AD305D02A4620E7624601E73B4614E776
:1056000006FA08F68642F5D26A1E002315E71A4606
:10561000E5E70B46A0E71146CBE7904688E743460F
:1056200042460AE7023A53E702392F443CE700BFFB
:105630002DE9F00F144605460E46002B43D18A4251
:1056400053D9B2FA82F757B1C7F1200620FA06F60D
:1056500001FA07F302FA07F41E4300FA07F5210CDA
:10566000B6FBF1F22B0C01FB1267A0B243EA07462E
:1056700000FB02F3B34209D9361902F1FF3780F07B
:10568000F680B34240F2F380023A2644F61AB6FBA3
:10569000F1F3ADB201FB136145EA014100FB03F0F8
:1056A000884208D9091903F1FF3680F0E280884268
:1056B00040F2DF80023B43EA0242002310461946D3
:1056C000BDE8F00F70478B424AD8B3FA83F6002E3C
:1056D0004DD18B4202D3824200F2D68000230122B8
:1056E00010461946BDE8F00F704712B90124B4FB0B
:1056F000F2F4B4FA84F2002A7CD1091B260CA7B27A
:105700000123B1FBF6F02A0C06FB101142EA01411D
:1057100007FB00F28A4207D9091900F1FF3C02D2C7
:105720008A4200F2C3806046891AB1FBF6F2ADB23C
:1057300006FB121145EA014507FB02F7AF4208D903
:105740002C1902F1FF3180F09680A74240F293803D
:10575000023A42EA004210461946BDE8F00F70478F
:1057600000231A4610461946BDE8F00F7047C6F1EF
:10577000200522FA05F4B3401C434FEA144821FAED
:1057800005F301FA06F720FA05F5B3FBF8FC2F4301
:1057900008FB1C333D0C1FFA84FA45EA03430AFB5D
:1057A0000CF9994502FA06FB04D91B190CF1FF32DA
:1057B0006DD39446C9EB0303B3FBF8F508FB15332F
:1057C000BFB247EA03470AFB05F8B84504D93F19B9
:1057D00005F1FF3361D31D4645EA0C4CACFB0B23AE
:1057E000C8EB07079F424FF0000549D345D06246FA
:1057F0002B4663E79440C2F1200321FA03FC260CF8
:1058000020FA03F301FA02F5BCFBF6F843EA0501BE
:105810000B0C06FB18CCA7B243EA0C4C07FB08F3B1
:10582000634500FA02F509D91CEB040C08F1FF32BC
:105830003AD2634538D9A8F10208A444C3EB0C0C52
:10584000BCFBF6F389B206FB13CC41EA0C4107FB23
:1058500003F28A4207D9091903F1FF3022D28A42A2
:1058600020D9023B2144891A43EA084349E73A46D2
:105870000CE733461FE70A466BE7B0409042B6D2CA
:105880000CF1FF32002319E73346324616E79945FB
:105890008FD9ACF1020C23448CE7B8459BD9023D6B
:1058A000274499E70346DEE79046C7E702382144DC
:1058B0003AE700BF024B58221A604FF0FF307047A2
:1058C000D4080020024B58221A604FF0FF30704776
:1058D000D4080020024B58221A600020704700BFF5
:1058E000D4080020024B58221A604FF0FF30704756
:1058F000D4080020024B58221A604FF0FF30704746
:10590000D4080020094A136863B1184469468842E4
:1059100002D8106018467047054B0C221A604FF0F1
:10592000FF307047034B1360EFE700BFD008002043
:10593000D4080020D8080020024B58221A604FF0EB
:10594000FF307047D4080020686921002020202003
:10595000202020202020202020202020494E4600EA
:10596000696E66004E414E006E616E00303132331A
:10597000343536373839414243444546000000004B
:1059800030313233343536373839616263646566B5
:1059900000000000286E756C6C29000030000000CB
:1059A00030303030303030303030303030303030F7
:1059B000496E66696E697479000000004E614E00A0
:1059C00043000000504F5349580000002E000000D3
:1059D000000000000000F03F000000000000244034
:1059E00000000000000059400000000000408F400F
:1059F000000000000088C34000000000006AF8407A
:105A00000000000080842E4100000000D01263419D
:105A10000000000084D797410000000065CDCD4113
:105A2000000000205FA00242000000E876483742F4
:105A3000000000A2941A6D42000040E59C30A24292
:105A40000000901EC4BCD64200003426F56B0C4307
:105A50000080E03779C3414300A0D88557347643AE
:105A600000C84E676DC1AB43003D9160E458E1430F
:105A7000408CB5781DAF154450EFE2D6E41A4B4484
:105A800092D54D06CFF08044F64AE1C7022DB544C9
:105A9000B49DD9794378EA440080E03779C3414323
:105AA000176E05B5B5B89346F5F93FE9034F384D84
:105AB000321D30F94877825A3CBF737FDD4F157530
:0C5AC00005000000190000007D0000003F
:085ACC00CCF8FF7F010000008F
